{
  "address": "0x467b43ede72543FC0FD79c7085435A484a87e0D7",
  "abi": [
    {
      "inputs": [],
      "stateMutability": "nonpayable",
      "type": "constructor"
    },
    {
      "inputs": [],
      "name": "DepositNFTNotSet",
      "type": "error"
    },
    {
      "inputs": [],
      "name": "DepositNotAllowed",
      "type": "error"
    },
    {
      "inputs": [],
      "name": "EmergencyTimestampNotReached",
      "type": "error"
    },
    {
      "inputs": [],
      "name": "InvalidAmount",
      "type": "error"
    },
    {
      "inputs": [],
      "name": "ValueNotAccepted",
      "type": "error"
    },
    {
      "inputs": [],
      "name": "WithdrawalNotEnabled",
      "type": "error"
    },
    {
      "inputs": [],
      "name": "ZeroDeposit",
      "type": "error"
    },
    {
      "anonymous": false,
      "inputs": [
        {
          "indexed": false,
          "internalType": "uint8",
          "name": "version",
          "type": "uint8"
        }
      ],
      "name": "Initialized",
      "type": "event"
    },
    {
      "anonymous": false,
      "inputs": [
        {
          "indexed": true,
          "internalType": "address",
          "name": "previousOwner",
          "type": "address"
        },
        {
          "indexed": true,
          "internalType": "address",
          "name": "newOwner",
          "type": "address"
        }
      ],
      "name": "OwnershipTransferStarted",
      "type": "event"
    },
    {
      "anonymous": false,
      "inputs": [
        {
          "indexed": true,
          "internalType": "address",
          "name": "previousOwner",
          "type": "address"
        },
        {
          "indexed": true,
          "internalType": "address",
          "name": "newOwner",
          "type": "address"
        }
      ],
      "name": "OwnershipTransferred",
      "type": "event"
    },
    {
      "anonymous": false,
      "inputs": [
        {
          "indexed": false,
          "internalType": "address",
          "name": "account",
          "type": "address"
        }
      ],
      "name": "Paused",
      "type": "event"
    },
    {
      "anonymous": false,
      "inputs": [
        {
          "indexed": true,
          "internalType": "address",
          "name": "user",
          "type": "address"
        },
        {
          "indexed": true,
          "internalType": "address",
          "name": "token",
          "type": "address"
        },
        {
          "indexed": false,
          "internalType": "uint256",
          "name": "amount",
          "type": "uint256"
        },
        {
          "indexed": false,
          "internalType": "address",
          "name": "wrappedToken",
          "type": "address"
        },
        {
          "indexed": false,
          "internalType": "uint256",
          "name": "wrappedAmount",
          "type": "uint256"
        }
      ],
      "name": "Staked",
      "type": "event"
    },
    {
      "anonymous": false,
      "inputs": [
        {
          "indexed": false,
          "internalType": "address",
          "name": "account",
          "type": "address"
        }
      ],
      "name": "Unpaused",
      "type": "event"
    },
    {
      "anonymous": false,
      "inputs": [
        {
          "indexed": true,
          "internalType": "address",
          "name": "user",
          "type": "address"
        },
        {
          "indexed": true,
          "internalType": "address",
          "name": "token",
          "type": "address"
        },
        {
          "indexed": false,
          "internalType": "uint256",
          "name": "amount",
          "type": "uint256"
        },
        {
          "indexed": false,
          "internalType": "address",
          "name": "wrappedToken",
          "type": "address"
        },
        {
          "indexed": false,
          "internalType": "uint256",
          "name": "wrappedAmount",
          "type": "uint256"
        }
      ],
      "name": "Unstaked",
      "type": "event"
    },
    {
      "inputs": [],
      "name": "STETH",
      "outputs": [
        {
          "internalType": "contract ILido",
          "name": "",
          "type": "address"
        }
      ],
      "stateMutability": "view",
      "type": "function"
    },
    {
      "inputs": [],
      "name": "WSTETH",
      "outputs": [
        {
          "internalType": "contract IWstETH",
          "name": "",
          "type": "address"
        }
      ],
      "stateMutability": "view",
      "type": "function"
    },
    {
      "inputs": [],
      "name": "acceptOwnership",
      "outputs": [],
      "stateMutability": "nonpayable",
      "type": "function"
    },
    {
      "inputs": [
        {
          "internalType": "address",
          "name": "token",
          "type": "address"
        },
        {
          "internalType": "uint256",
          "name": "amount",
          "type": "uint256"
        }
      ],
      "name": "deposit",
      "outputs": [],
      "stateMutability": "payable",
      "type": "function"
    },
    {
      "inputs": [
        {
          "internalType": "address",
          "name": "token",
          "type": "address"
        }
      ],
      "name": "depositAllowed",
      "outputs": [
        {
          "internalType": "bool",
          "name": "accepted",
          "type": "bool"
        }
      ],
      "stateMutability": "view",
      "type": "function"
    },
    {
      "inputs": [],
      "name": "depositNFT",
      "outputs": [
        {
          "internalType": "address",
          "name": "",
          "type": "address"
        }
      ],
      "stateMutability": "view",
      "type": "function"
    },
    {
      "inputs": [
        {
          "internalType": "address",
          "name": "token",
          "type": "address"
        }
      ],
      "name": "emergencyWithdraw",
      "outputs": [],
      "stateMutability": "nonpayable",
      "type": "function"
    },
    {
      "inputs": [],
      "name": "getExchangeRateFromWstToSt",
      "outputs": [
        {
          "internalType": "uint256",
          "name": "",
          "type": "uint256"
        }
      ],
      "stateMutability": "view",
      "type": "function"
    },
    {
      "inputs": [
        {
          "internalType": "address",
          "name": "user",
          "type": "address"
        },
        {
          "internalType": "address[]",
          "name": "tokens",
          "type": "address[]"
        }
      ],
      "name": "getUserInfo",
      "outputs": [
        {
          "internalType": "address[]",
          "name": "principalTokens",
          "type": "address[]"
        },
        {
          "internalType": "uint256[]",
          "name": "depositedAmounts",
          "type": "uint256[]"
        },
        {
          "internalType": "address[]",
          "name": "wrappedTokens",
          "type": "address[]"
        },
        {
          "internalType": "uint256[]",
          "name": "wrappedAmounts",
          "type": "uint256[]"
        },
        {
          "internalType": "uint256[]",
          "name": "walletBalances",
          "type": "uint256[]"
        }
      ],
      "stateMutability": "view",
      "type": "function"
    },
    {
      "inputs": [],
      "name": "initialize",
      "outputs": [],
      "stateMutability": "nonpayable",
      "type": "function"
    },
    {
      "inputs": [],
      "name": "mellowVault",
      "outputs": [
        {
          "internalType": "contract IMellowVault",
          "name": "",
          "type": "address"
        }
      ],
      "stateMutability": "view",
      "type": "function"
    },
    {
      "inputs": [
        {
          "internalType": "address",
          "name": "token",
          "type": "address"
        },
        {
          "internalType": "address",
          "name": "wrappedToken",
          "type": "address"
        },
        {
          "internalType": "uint256",
          "name": "poolId",
          "type": "uint256"
        },
        {
          "internalType": "address[]",
          "name": "targets",
          "type": "address[]"
        }
      ],
      "name": "migrateData",
      "outputs": [],
      "stateMutability": "nonpayable",
      "type": "function"
    },
    {
      "inputs": [],
      "name": "migrator",
      "outputs": [
        {
          "internalType": "address",
          "name": "",
          "type": "address"
        }
      ],
      "stateMutability": "view",
      "type": "function"
    },
    {
      "inputs": [],
      "name": "ogNFT",
      "outputs": [
        {
          "internalType": "address",
          "name": "",
          "type": "address"
        }
      ],
      "stateMutability": "view",
      "type": "function"
    },
    {
      "inputs": [],
      "name": "owner",
      "outputs": [
        {
          "internalType": "address",
          "name": "",
          "type": "address"
        }
      ],
      "stateMutability": "view",
      "type": "function"
    },
    {
      "inputs": [],
      "name": "pause",
      "outputs": [],
      "stateMutability": "nonpayable",
      "type": "function"
    },
    {
      "inputs": [],
      "name": "paused",
      "outputs": [
        {
          "internalType": "bool",
          "name": "",
          "type": "bool"
        }
      ],
      "stateMutability": "view",
      "type": "function"
    },
    {
      "inputs": [],
      "name": "pendingOwner",
      "outputs": [
        {
          "internalType": "address",
          "name": "",
          "type": "address"
        }
      ],
      "stateMutability": "view",
      "type": "function"
    },
    {
      "inputs": [],
      "name": "preStaking",
      "outputs": [
        {
          "internalType": "contract IPreStaking",
          "name": "",
          "type": "address"
        }
      ],
      "stateMutability": "view",
      "type": "function"
    },
    {
      "inputs": [],
      "name": "renounceOwnership",
      "outputs": [],
      "stateMutability": "nonpayable",
      "type": "function"
    },
    {
      "inputs": [
        {
          "internalType": "address",
          "name": "_token",
          "type": "address"
        },
        {
          "internalType": "bool",
          "name": "_allowed",
          "type": "bool"
        }
      ],
      "name": "setDepositAllowed",
      "outputs": [],
      "stateMutability": "nonpayable",
      "type": "function"
    },
    {
      "inputs": [
        {
          "internalType": "address",
          "name": "_depositNFT",
          "type": "address"
        }
      ],
      "name": "setDepositNFT",
      "outputs": [],
      "stateMutability": "nonpayable",
      "type": "function"
    },
    {
      "inputs": [
        {
          "internalType": "uint256",
          "name": "_timestamp",
          "type": "uint256"
        }
      ],
      "name": "setEmergencyWithdrawTimestamp",
      "outputs": [],
      "stateMutability": "nonpayable",
      "type": "function"
    },
    {
      "inputs": [
        {
          "internalType": "address",
          "name": "_stETH",
          "type": "address"
        },
        {
          "internalType": "address",
          "name": "_wstETH",
          "type": "address"
        },
        {
          "internalType": "bool",
          "name": "_allowDeposit",
          "type": "bool"
        }
      ],
      "name": "setLido",
      "outputs": [],
      "stateMutability": "nonpayable",
      "type": "function"
    },
    {
      "inputs": [
        {
          "internalType": "address",
          "name": "_mellowVault",
          "type": "address"
        }
      ],
      "name": "setMellowVault",
      "outputs": [],
      "stateMutability": "nonpayable",
      "type": "function"
    },
    {
      "inputs": [
        {
          "internalType": "address",
          "name": "_migrator",
          "type": "address"
        },
        {
          "internalType": "address",
          "name": "_preStaking",
          "type": "address"
        }
      ],
      "name": "setMigrationInfo",
      "outputs": [],
      "stateMutability": "nonpayable",
      "type": "function"
    },
    {
      "inputs": [
        {
          "internalType": "address",
          "name": "_ogNFT",
          "type": "address"
        }
      ],
      "name": "setOGNFT",
      "outputs": [],
      "stateMutability": "nonpayable",
      "type": "function"
    },
    {
      "inputs": [
        {
          "internalType": "bool",
          "name": "_enabled",
          "type": "bool"
        }
      ],
      "name": "setWithdrawalEnabled",
      "outputs": [],
      "stateMutability": "nonpayable",
      "type": "function"
    },
    {
      "inputs": [
        {
          "internalType": "address",
          "name": "newOwner",
          "type": "address"
        }
      ],
      "name": "transferOwnership",
      "outputs": [],
      "stateMutability": "nonpayable",
      "type": "function"
    },
    {
      "inputs": [],
      "name": "unpause",
      "outputs": [],
      "stateMutability": "nonpayable",
      "type": "function"
    },
    {
      "inputs": [
        {
          "internalType": "address",
          "name": "user",
          "type": "address"
        },
        {
          "internalType": "address",
          "name": "depositToken",
          "type": "address"
        }
      ],
      "name": "userInfos",
      "outputs": [
        {
          "internalType": "address",
          "name": "wrappedToken",
          "type": "address"
        },
        {
          "internalType": "uint256",
          "name": "wrappedAmount",
          "type": "uint256"
        }
      ],
      "stateMutability": "view",
      "type": "function"
    },
    {
      "inputs": [
        {
          "internalType": "address",
          "name": "token",
          "type": "address"
        },
        {
          "internalType": "uint256",
          "name": "amount",
          "type": "uint256"
        }
      ],
      "name": "withdraw",
      "outputs": [],
      "stateMutability": "nonpayable",
      "type": "function"
    },
    {
      "inputs": [],
      "name": "withdrawalEnabled",
      "outputs": [
        {
          "internalType": "bool",
          "name": "",
          "type": "bool"
        }
      ],
      "stateMutability": "view",
      "type": "function"
    }
  ],
  "transactionHash": "0x78623a513f423d33e856351dec463e8dd63160475d6960d5f3860800d1ddf040",
  "args": [],
  "numDeployments": 4,
  "solcInputHash": "597629a4cd91dabf3b5547190edaf516",
  "bytecode": "0x60806040526367dee4f460cf553480156200001957600080fd5b50620000246200002a565b620000eb565b600054610100900460ff1615620000975760405162461bcd60e51b815260206004820152602760248201527f496e697469616c697a61626c653a20636f6e747261637420697320696e697469604482015266616c697a696e6760c81b606482015260840160405180910390fd5b60005460ff90811614620000e9576000805460ff191660ff9081179091556040519081527f7f26b83ff96e1f2b6a682f133852f6798a09c465da95921460cefb38474024989060200160405180910390a15b565b6129fb80620000fb6000396000f3fe6080604052600436106101ee5760003560e01c806387878fef1161010d578063d9b8bc0d116100a0578063ec3d863a1161006f578063ec3d863a146105b9578063f2fde38b146105dc578063f3fef3a3146105fc578063f8ea5daf1461061c578063ffc5dc221461063d57600080fd5b8063d9b8bc0d1461053b578063d9fb643a1461055b578063e00bfe501461057b578063e30c39781461059b57600080fd5b8063b1d231c1116100dc578063b1d231c114610450578063bd9f9b4714610481578063c4f90abf146104b1578063c9b5279c146104d157600080fd5b806387878fef146103d25780638da5cb5b146103f25780639a70d263146104105780639e7ff6fe1461043057600080fd5b80636c31ffbc116101855780637cd07e47116101545780637cd07e47146103685780638129fc1c146103885780638456cb591461039d5780638560b582146103b257600080fd5b80636c31ffbc146102fe5780636ff1c9bc1461031e578063715018a61461033e57806379ba50971461035357600080fd5b806347e7ef24116101c157806347e7ef24146102875780635c975abb1461029a57806367e3c4d4146102be5780636beb716c146102de57600080fd5b806313822724146101f35780631553c74014610215578063371db5b0146102525780633f4ba83a14610272575b600080fd5b3480156101ff57600080fd5b5061021361020e366004612472565b61065d565b005b34801561022157600080fd5b5060cc54610235906001600160a01b031681565b6040516001600160a01b0390911681526020015b60405180910390f35b34801561025e57600080fd5b5061021361026d3660046124a9565b610690565b34801561027e57600080fd5b506102136106ba565b6102136102953660046124cb565b6106cc565b3480156102a657600080fd5b5060975460ff165b6040519015158152602001610249565b3480156102ca57600080fd5b5060cb54610235906001600160a01b031681565b3480156102ea57600080fd5b506102136102f93660046124f5565b610ce0565b34801561030a57600080fd5b5061021361031936600461250e565b610ced565b34801561032a57600080fd5b506102136103393660046124a9565b610e80565b34801561034a57600080fd5b50610213610fa0565b34801561035f57600080fd5b50610213610fb2565b34801561037457600080fd5b5060d154610235906001600160a01b031681565b34801561039457600080fd5b50610213611031565b3480156103a957600080fd5b50610213611151565b3480156103be57600080fd5b506102136103cd366004612555565b611161565b3480156103de57600080fd5b506102136103ed366004612588565b6111c2565b3480156103fe57600080fd5b506033546001600160a01b0316610235565b34801561041c57600080fd5b5061021361042b3660046124a9565b6111e8565b34801561043c57600080fd5b5060d054610235906001600160a01b031681565b34801561045c57600080fd5b5061047061046b366004612652565b611212565b604051610249959493929190612714565b34801561048d57600080fd5b506102ae61049c3660046124a9565b60c96020526000908152604090205460ff1681565b3480156104bd57600080fd5b506102136104cc366004612781565b61174f565b3480156104dd57600080fd5b5061051c6104ec366004612555565b60ca602090815260009283526040808420909152908252902080546001909101546001600160a01b039091169082565b604080516001600160a01b039093168352602083019190915201610249565b34801561054757600080fd5b506102136105563660046124a9565b6119b4565b34801561056757600080fd5b5060ce54610235906001600160a01b031681565b34801561058757600080fd5b5060cd54610235906001600160a01b031681565b3480156105a757600080fd5b506065546001600160a01b0316610235565b3480156105c557600080fd5b506105ce6119ed565b604051908152602001610249565b3480156105e857600080fd5b506102136105f73660046124a9565b611a67565b34801561060857600080fd5b506102136106173660046124cb565b611ad8565b34801561062857600080fd5b5060ce546102ae90600160a01b900460ff1681565b34801561064957600080fd5b5060d254610235906001600160a01b031681565b610665611b0c565b6001600160a01b0391909116600090815260c960205260409020805460ff1916911515919091179055565b610698611b0c565b60cb80546001600160a01b0319166001600160a01b0392909216919091179055565b6106c2611b0c565b6106ca611b66565b565b6106d4611bb8565b6001600160a01b038216600090815260c9602052604090205460ff1661070d576040516301ec871560e51b815260040160405180910390fd5b60cb546001600160a01b0316610736576040516317d7369760e31b815260040160405180910390fd5b60006001600160a01b038316610a1a5761074f82611bfe565b60cd5460405163a1903eab60e01b81523360048201526001600160a01b039091169063a1903eab90849060240160206040518083038185885af115801561079a573d6000803e3d6000fd5b50505050506040513d601f19601f820116820180604052508101906107bf91906127e9565b5060ce54604051630ea598cb60e41b8152600481018490526001600160a01b039091169063ea598cb0906024016020604051808303816000875af115801561080b573d6000803e3d6000fd5b505050506040513d601f19601f8201168201806040525081019061082f91906127e9565b60cc546040516335e8059960e21b8152336004820152602481018590529192506001600160a01b03169063d7a0166490604401602060405180830381865afa15801561087f573d6000803e3d6000fd5b505050506040513d601f19601f820116820180604052508101906108a39190612802565b156109065760cc546040516340d097c360e01b81523360048201526001600160a01b03909116906340d097c390602401600060405180830381600087803b1580156108ed57600080fd5b505af1158015610901573d6000803e3d6000fd5b505050505b60cb5460ce5460405163db8d5a9560e01b81526001600160a01b039283169263db8d5a95926109439233926000923492911690889060040161281f565b600060405180830381600087803b15801561095d57600080fd5b505af1158015610971573d6000803e3d6000fd5b505033600090815260ca60209081526040808320838052909152812060018101805491945085935091906109a6908490612868565b909155505060ce805482546001600160a01b0319166001600160a01b0391821617835590546040805134815291909216602082015290810183905260009033907f859761954570e1d76aff608003023b9377aa1cada3dad30695765a4893189052906060015b60405180910390a350505050565b60cd546001600160a01b0390811690841603610bc757610a3a8383611c3f565b60ce54604051630ea598cb60e41b8152600481018490526001600160a01b039091169063ea598cb0906024016020604051808303816000875af1158015610a85573d6000803e3d6000fd5b505050506040513d601f19601f82011682018060405250810190610aa991906127e9565b60cb5460cd5460ce5460405163db8d5a9560e01b81529394506001600160a01b039283169363db8d5a9593610aee93339390821692899290911690889060040161281f565b600060405180830381600087803b158015610b0857600080fd5b505af1158015610b1c573d6000803e3d6000fd5b505033600090815260ca6020908152604080832060cd546001600160a01b0316845290915281206001810180549194508593509190610b5c908490612868565b909155505060ce805482546001600160a01b0319166001600160a01b0391821617835560cd549154604080518781529183166020830152810185905291169033907f859761954570e1d76aff608003023b9377aa1cada3dad30695765a489318905290606001610a0c565b610bd18383611c3f565b5060cb5460405163db8d5a9560e01b815282916001600160a01b03169063db8d5a9590610c0a903390879086908290829060040161281f565b600060405180830381600087803b158015610c2457600080fd5b505af1158015610c38573d6000803e3d6000fd5b505033600090815260ca602090815260408083206001600160a01b038916845290915281206001810180549194508593509190610c76908490612868565b909155505080546001600160a01b0319166001600160a01b0385169081178255604080518581526020810183905290810184905233907f859761954570e1d76aff608003023b9377aa1cada3dad30695765a48931890529060600160405180910390a3505b505050565b610ce8611b0c565b60cf55565b610cf5611b0c565b60cd80546001600160a01b038581166001600160a01b0319928316811790935560ce805491861691909216811790915560405163095ea7b360e01b81526004810191909152600019602482015263095ea7b3906044016020604051808303816000875af1158015610d6a573d6000803e3d6000fd5b505050506040513d601f19601f82011682018060405250810190610d8e9190612802565b5060ce5460cd5460405163095ea7b360e01b81526001600160a01b039182166004820152600019602482015291169063095ea7b3906044016020604051808303816000875af1158015610de5573d6000803e3d6000fd5b505050506040513d601f19601f82011682018060405250810190610e099190612802565b508015610cdb57505060cd546001600160a01b03908116600090815260c960205260408082208054600160ff19918216811790925560ce54909416835290822080548416821790559080527f81fe90a866a48a634a12852c1be675b683a22307409932a7443b8029347be756805490921617905550565b4260cf541115610ea35760405163c793651560e01b815260040160405180910390fd5b33600090815260ca602090815260408083206001600160a01b0385168085529252909120901580610ee1575060cd546001600160a01b038381169116145b15610f7d5760ce546001820154604051636f074d1f60e11b815260048101919091526000916001600160a01b03169063de0e9a3e906024016020604051808303816000875af1158015610f38573d6000803e3d6000fd5b505050506040513d601f19601f82011682018060405250810190610f5c91906127e9565b6000600184015560cd54909150610cdb906001600160a01b03163383611c94565b6001810180546000909155610cdb6001600160a01b0384163383611c94565b5050565b610fa8611b0c565b6106ca6000611cf7565b60655433906001600160a01b031681146110255760405162461bcd60e51b815260206004820152602960248201527f4f776e61626c6532537465703a2063616c6c6572206973206e6f7420746865206044820152683732bb9037bbb732b960b91b60648201526084015b60405180910390fd5b61102e81611cf7565b50565b600054610100900460ff16158080156110515750600054600160ff909116105b8061106b5750303b15801561106b575060005460ff166001145b6110ce5760405162461bcd60e51b815260206004820152602e60248201527f496e697469616c697a61626c653a20636f6e747261637420697320616c72656160448201526d191e481a5b9a5d1a585b1a5e995960921b606482015260840161101c565b6000805460ff1916600117905580156110f1576000805461ff0019166101001790555b6110f9611d10565b611101611d3f565b611109611d6e565b801561102e576000805461ff0019169055604051600181527f7f26b83ff96e1f2b6a682f133852f6798a09c465da95921460cefb38474024989060200160405180910390a150565b611159611b0c565b6106ca611d6e565b73bdc61836abdf0542fe4a0b8bf30eaed77953684b33146111945760405162461bcd60e51b815260040161101c90612881565b60d180546001600160a01b039384166001600160a01b03199182161790915560d28054929093169116179055565b6111ca611b0c565b60ce8054911515600160a01b0260ff60a01b19909216919091179055565b6111f0611b0c565b60cc80546001600160a01b0319166001600160a01b0392909216919091179055565b6060806060806060855167ffffffffffffffff811115611234576112346125a5565b60405190808252806020026020018201604052801561125d578160200160208202803683370190505b509450855167ffffffffffffffff81111561127a5761127a6125a5565b6040519080825280602002602001820160405280156112a3578160200160208202803683370190505b509250855167ffffffffffffffff8111156112c0576112c06125a5565b6040519080825280602002602001820160405280156112e9578160200160208202803683370190505b509150855167ffffffffffffffff811115611306576113066125a5565b60405190808252806020026020018201604052801561132f578160200160208202803683370190505b509050855167ffffffffffffffff81111561134c5761134c6125a5565b604051908082528060200260200182016040528015611375578160200160208202803683370190505b50935060005b865181101561174457868181518110611396576113966128c5565b60200260200101518682815181106113b0576113b06128c5565b60200260200101906001600160a01b031690816001600160a01b03168152505060006001600160a01b03168782815181106113ed576113ed6128c5565b60200260200101516001600160a01b03160361143157876001600160a01b031631828281518110611420576114206128c5565b6020026020010181815250506114d8565b868181518110611443576114436128c5565b60209081029190910101516040516370a0823160e01b81526001600160a01b038a81166004830152909116906370a0823190602401602060405180830381865afa158015611495573d6000803e3d6000fd5b505050506040513d601f19601f820116820180604052508101906114b991906127e9565b8282815181106114cb576114cb6128c5565b6020026020010181815250505b6001600160a01b038816600090815260ca602052604081208851909190899084908110611507576115076128c5565b60200260200101516001600160a01b03166001600160a01b0316815260200190815260200160002060000160009054906101000a90046001600160a01b0316848281518110611558576115586128c5565b60200260200101906001600160a01b031690816001600160a01b03168152505060ca6000896001600160a01b03166001600160a01b0316815260200190815260200160002060008883815181106115b1576115b16128c5565b60200260200101516001600160a01b03166001600160a01b03168152602001908152602001600020600101548382815181106115ef576115ef6128c5565b60200260200101818152505083818151811061160d5761160d6128c5565b60200260200101516001600160a01b0316878281518110611630576116306128c5565b60200260200101516001600160a01b0316146116f95760ce5483516001600160a01b039091169063bb2952fc9085908490811061166f5761166f6128c5565b60200260200101516040518263ffffffff1660e01b815260040161169591815260200190565b602060405180830381865afa1580156116b2573d6000803e3d6000fd5b505050506040513d601f19601f820116820180604052508101906116d691906127e9565b8582815181106116e8576116e86128c5565b602002602001018181525050611732565b82818151811061170b5761170b6128c5565b6020026020010151858281518110611725576117256128c5565b6020026020010181815250505b8061173c816128db565b91505061137b565b509295509295909350565b60d1546001600160a01b031633146117795760405162461bcd60e51b815260040161101c90612881565b60d25460405163095ea7b360e01b81526001600160a01b03918216600482015260001960248201529084169063095ea7b3906044016020604051808303816000875af11580156117cd573d6000803e3d6000fd5b505050506040513d601f19601f820116820180604052508101906117f19190612802565b5060005b81518110156119ad57600060ca6000848481518110611816576118166128c5565b60200260200101516001600160a01b03166001600160a01b031681526020019081526020016000206000876001600160a01b03166001600160a01b0316815260200190815260200160002090506000816001015411156119135760d254600182015484516001600160a01b0390921691638dbdbe6d9187918790879081106118a0576118a06128c5565b60200260200101516040518463ffffffff1660e01b81526004016118e09392919092835260208301919091526001600160a01b0316604082015260600190565b600060405180830381600087803b1580156118fa57600080fd5b505af115801561190e573d6000803e3d6000fd5b505050505b60008160010181905550856001600160a01b0316838381518110611939576119396128c5565b60209081029190910181015160018401548454604080518381526001600160a01b039283169581019590955284019190915216907f2b1c2b55b5706d2d07b51ade4c397648f9728bf5a78960dab295170a2c01fd249060600160405180910390a350806119a5816128db565b9150506117f5565b5050505050565b6119bc611b0c565b60d080546001600160a01b0319166001600160a01b038381169190911790915560ce5461102e911682600019611dab565b60ce54604051632eca54bf60e21b8152670de0b6b3a764000060048201526000916001600160a01b03169063bb2952fc90602401602060405180830381865afa158015611a3e573d6000803e3d6000fd5b505050506040513d601f19601f82011682018060405250810190611a6291906127e9565b905090565b611a6f611b0c565b606580546001600160a01b0383166001600160a01b03199091168117909155611aa06033546001600160a01b031690565b6001600160a01b03167f38d16b8cac22d99fc7c124b9cd0de2d3fa1faef420bfe791d8c362d765e2270060405160405180910390a350565b60ce54600160a01b900460ff16611b02576040516307d03c5160e31b815260040160405180910390fd5b610f9c8282611ec0565b6033546001600160a01b031633146106ca5760405162461bcd60e51b815260206004820181905260248201527f4f776e61626c653a2063616c6c6572206973206e6f7420746865206f776e6572604482015260640161101c565b611b6e6120a7565b6097805460ff191690557f5db9ee0a495bf2e6ff9c91a7834c1ba4fdd244a5e8aa4e537bd38aeae4b073aa335b6040516001600160a01b03909116815260200160405180910390a1565b60975460ff16156106ca5760405162461bcd60e51b815260206004820152601060248201526f14185d5cd8589b194e881c185d5cd95960821b604482015260640161101c565b34600003611c1f576040516356316e8760e01b815260040160405180910390fd5b80341461102e5760405163162908e360e11b815260040160405180910390fd5b80600003611c60576040516356316e8760e01b815260040160405180910390fd5b3415611c7f57604051630d7b65ad60e01b815260040160405180910390fd5b610f9c6001600160a01b0383163330846120f0565b6040516001600160a01b038316602482015260448101829052610cdb90849063a9059cbb60e01b906064015b60408051601f198184030181529190526020810180516001600160e01b03166001600160e01b03199093169290921790915261212e565b606580546001600160a01b031916905561102e81612203565b600054610100900460ff16611d375760405162461bcd60e51b815260040161101c906128f4565b6106ca612255565b600054610100900460ff16611d665760405162461bcd60e51b815260040161101c906128f4565b6106ca612285565b611d76611bb8565b6097805460ff191660011790557f62e78cea01bee320cd4e420270b5ea74000d11b0c9f74754ebdbfc544b05a258611b9b3390565b801580611e255750604051636eb1769f60e11b81523060048201526001600160a01b03838116602483015284169063dd62ed3e90604401602060405180830381865afa158015611dff573d6000803e3d6000fd5b505050506040513d601f19601f82011682018060405250810190611e2391906127e9565b155b611e905760405162461bcd60e51b815260206004820152603660248201527f5361666545524332303a20617070726f76652066726f6d206e6f6e2d7a65726f60448201527520746f206e6f6e2d7a65726f20616c6c6f77616e636560501b606482015260840161101c565b6040516001600160a01b038316602482015260448101829052610cdb90849063095ea7b360e01b90606401611cc0565b33600090815260ca602090815260408083206001600160a01b0386168085529252909120901580611efe575060cd546001600160a01b038481169116145b156120795760ce5460405162b0e38960e81b8152600481018490526000916001600160a01b03169063b0e3890090602401602060405180830381865afa158015611f4c573d6000803e3d6000fd5b505050506040513d601f19601f82011682018060405250810190611f7091906127e9565b905080826001016000828254611f86919061293f565b909155505060ce54604051636f074d1f60e11b8152600481018390526000916001600160a01b03169063de0e9a3e906024016020604051808303816000875af1158015611fd7573d6000803e3d6000fd5b505050506040513d601f19601f82011682018060405250810190611ffb91906127e9565b60cd5460405163a9059cbb60e01b8152336004820152602481018390529192506001600160a01b03169063a9059cbb906044016020604051808303816000875af115801561204d573d6000803e3d6000fd5b505050506040513d601f19601f820116820180604052508101906120719190612802565b505050505050565b8181600101600082825461208d919061293f565b90915550610cdb90506001600160a01b0384163384611c94565b60975460ff166106ca5760405162461bcd60e51b815260206004820152601460248201527314185d5cd8589b194e881b9bdd081c185d5cd95960621b604482015260640161101c565b6040516001600160a01b03808516602483015283166044820152606481018290526121289085906323b872dd60e01b90608401611cc0565b50505050565b6000612183826040518060400160405280602081526020017f5361666545524332303a206c6f772d6c6576656c2063616c6c206661696c6564815250856001600160a01b03166122b89092919063ffffffff16565b90508051600014806121a45750808060200190518101906121a49190612802565b610cdb5760405162461bcd60e51b815260206004820152602a60248201527f5361666545524332303a204552433230206f7065726174696f6e20646964206e6044820152691bdd081cdd58d8d9595960b21b606482015260840161101c565b603380546001600160a01b038381166001600160a01b0319831681179093556040519116919082907f8be0079c531659141344cd1fd0a4f28419497f9722a3daafe3b4186f6b6457e090600090a35050565b600054610100900460ff1661227c5760405162461bcd60e51b815260040161101c906128f4565b6106ca33611cf7565b600054610100900460ff166122ac5760405162461bcd60e51b815260040161101c906128f4565b6097805460ff19169055565b60606122c784846000856122cf565b949350505050565b6060824710156123305760405162461bcd60e51b815260206004820152602660248201527f416464726573733a20696e73756666696369656e742062616c616e636520666f6044820152651c8818d85b1b60d21b606482015260840161101c565b600080866001600160a01b0316858760405161234c9190612976565b60006040518083038185875af1925050503d8060008114612389576040519150601f19603f3d011682016040523d82523d6000602084013e61238e565b606091505b509150915061239f878383876123aa565b979650505050505050565b60608315612419578251600003612412576001600160a01b0385163b6124125760405162461bcd60e51b815260206004820152601d60248201527f416464726573733a2063616c6c20746f206e6f6e2d636f6e7472616374000000604482015260640161101c565b50816122c7565b6122c7838381511561242e5781518083602001fd5b8060405162461bcd60e51b815260040161101c9190612992565b80356001600160a01b038116811461245f57600080fd5b919050565b801515811461102e57600080fd5b6000806040838503121561248557600080fd5b61248e83612448565b9150602083013561249e81612464565b809150509250929050565b6000602082840312156124bb57600080fd5b6124c482612448565b9392505050565b600080604083850312156124de57600080fd5b6124e783612448565b946020939093013593505050565b60006020828403121561250757600080fd5b5035919050565b60008060006060848603121561252357600080fd5b61252c84612448565b925061253a60208501612448565b9150604084013561254a81612464565b809150509250925092565b6000806040838503121561256857600080fd5b61257183612448565b915061257f60208401612448565b90509250929050565b60006020828403121561259a57600080fd5b81356124c481612464565b634e487b7160e01b600052604160045260246000fd5b600082601f8301126125cc57600080fd5b8135602067ffffffffffffffff808311156125e9576125e96125a5565b8260051b604051601f19603f8301168101818110848211171561260e5761260e6125a5565b60405293845285810183019383810192508785111561262c57600080fd5b83870191505b8482101561239f5761264382612448565b83529183019190830190612632565b6000806040838503121561266557600080fd5b61266e83612448565b9150602083013567ffffffffffffffff81111561268a57600080fd5b612696858286016125bb565b9150509250929050565b600081518084526020808501945080840160005b838110156126d95781516001600160a01b0316875295820195908201906001016126b4565b509495945050505050565b600081518084526020808501945080840160005b838110156126d9578151875295820195908201906001016126f8565b60a08152600061272760a08301886126a0565b828103602084015261273981886126e4565b9050828103604084015261274d81876126a0565b9050828103606084015261276181866126e4565b9050828103608084015261277581856126e4565b98975050505050505050565b6000806000806080858703121561279757600080fd5b6127a085612448565b93506127ae60208601612448565b925060408501359150606085013567ffffffffffffffff8111156127d157600080fd5b6127dd878288016125bb565b91505092959194509250565b6000602082840312156127fb57600080fd5b5051919050565b60006020828403121561281457600080fd5b81516124c481612464565b6001600160a01b039586168152938516602085015260408401929092529092166060820152608081019190915260a00190565b634e487b7160e01b600052601160045260246000fd5b8082018082111561287b5761287b612852565b92915050565b60208082526024908201527f6f6e6c79206d69677261746f722063616e2063616c6c20746869732066756e636040820152633a34b7b760e11b606082015260800190565b634e487b7160e01b600052603260045260246000fd5b6000600182016128ed576128ed612852565b5060010190565b6020808252602b908201527f496e697469616c697a61626c653a20636f6e7472616374206973206e6f74206960408201526a6e697469616c697a696e6760a81b606082015260800190565b8181038181111561287b5761287b612852565b60005b8381101561296d578181015183820152602001612955565b50506000910152565b60008251612988818460208701612952565b9190910192915050565b60208152600082518060208401526129b1816040850160208701612952565b601f01601f1916919091016040019291505056fea2646970667358221220102b9db3e9bd10ee04052dd6ae1cdd9e95a5337c8c2a556880b4b176a03a03dd64736f6c63430008130033",
  "devdoc": {
    "author": "Synstation",
    "details": "features: - deposit ETH, stETH, ERC20 - mint OGNFT (if value >= 10 ETH only && once per user) - mint DepositNFT for each depositFor Current Version, withdrawal is not avaliable.",
    "events": {
      "Initialized(uint8)": {
        "details": "Triggered when the contract has been initialized or reinitialized."
      },
      "Paused(address)": {
        "details": "Emitted when the pause is triggered by `account`."
      },
      "Unpaused(address)": {
        "details": "Emitted when the pause is lifted by `account`."
      }
    },
    "kind": "dev",
    "methods": {
      "acceptOwnership()": {
        "details": "The new owner accepts the ownership transfer."
      },
      "emergencyWithdraw(address)": {
        "details": "only available after EMERGENCY_WITHDRAW_TIMESTAMP",
        "params": {
          "token": "token address"
        }
      },
      "owner()": {
        "details": "Returns the address of the current owner."
      },
      "paused()": {
        "details": "Returns true if the contract is paused, and false otherwise."
      },
      "pendingOwner()": {
        "details": "Returns the address of the pending owner."
      },
      "renounceOwnership()": {
        "details": "Leaves the contract without owner. It will not be possible to call `onlyOwner` functions. Can only be called by the current owner. NOTE: Renouncing ownership will leave the contract without an owner, thereby disabling any functionality that is only available to the owner."
      },
      "setDepositAllowed(address,bool)": {
        "params": {
          "_allowed": "the allowed status",
          "_token": "the address of the token"
        }
      },
      "setDepositNFT(address)": {
        "params": {
          "_depositNFT": "the address of the deposit NFT contract"
        }
      },
      "setLido(address,address,bool)": {
        "params": {
          "_allowDeposit": "the allowed status",
          "_stETH": "the addresses of the tokens",
          "_wstETH": "the allowed status"
        }
      },
      "setOGNFT(address)": {
        "params": {
          "_ogNFT": "the address of the OG NFT contract"
        }
      },
      "setWithdrawalEnabled(bool)": {
        "params": {
          "_enabled": "the enabled status"
        }
      },
      "transferOwnership(address)": {
        "details": "Starts the ownership transfer of the contract to a new account. Replaces the pending transfer if there is one. Can only be called by the current owner."
      },
      "withdraw(address,uint256)": {
        "details": "only available if withdrawalEnabled is true",
        "params": {
          "amount": "token amount",
          "token": "token address"
        }
      }
    },
    "title": "Staking.sol",
    "version": 1
  },
  "userdoc": {
    "kind": "user",
    "methods": {
      "emergencyWithdraw(address)": {
        "notice": "Emergency withdraw all tokens"
      },
      "getUserInfo(address,address[])": {
        "notice": "VIEW"
      },
      "pause()": {
        "notice": "Pause deposits to the bridge (admin only)"
      },
      "setDepositAllowed(address,bool)": {
        "notice": "Set the deposit allowed status for a token"
      },
      "setDepositNFT(address)": {
        "notice": "Set the deposit NFT contract address"
      },
      "setLido(address,address,bool)": {
        "notice": "Set the deposit allowed status for lido related tokens"
      },
      "setOGNFT(address)": {
        "notice": "Set the OG NFT contract address"
      },
      "setWithdrawalEnabled(bool)": {
        "notice": "Set the withdrawal enabled status"
      },
      "unpause()": {
        "notice": "Unpause deposits to the bridge (admin only)"
      },
      "withdraw(address,uint256)": {
        "notice": "Withdraw all tokens"
      }
    },
    "notice": "Main Staking Contract for synstation",
    "version": 1
  },
  "storageLayout": {
    "storage": [
      {
        "astId": 246,
        "contract": "contracts/Staking.sol:Staking",
        "label": "_initialized",
        "offset": 0,
        "slot": "0",
        "type": "t_uint8"
      },
      {
        "astId": 249,
        "contract": "contracts/Staking.sol:Staking",
        "label": "_initializing",
        "offset": 1,
        "slot": "0",
        "type": "t_bool"
      },
      {
        "astId": 916,
        "contract": "contracts/Staking.sol:Staking",
        "label": "__gap",
        "offset": 0,
        "slot": "1",
        "type": "t_array(t_uint256)50_storage"
      },
      {
        "astId": 118,
        "contract": "contracts/Staking.sol:Staking",
        "label": "_owner",
        "offset": 0,
        "slot": "51",
        "type": "t_address"
      },
      {
        "astId": 238,
        "contract": "contracts/Staking.sol:Staking",
        "label": "__gap",
        "offset": 0,
        "slot": "52",
        "type": "t_array(t_uint256)49_storage"
      },
      {
        "astId": 11,
        "contract": "contracts/Staking.sol:Staking",
        "label": "_pendingOwner",
        "offset": 0,
        "slot": "101",
        "type": "t_address"
      },
      {
        "astId": 105,
        "contract": "contracts/Staking.sol:Staking",
        "label": "__gap",
        "offset": 0,
        "slot": "102",
        "type": "t_array(t_uint256)49_storage"
      },
      {
        "astId": 430,
        "contract": "contracts/Staking.sol:Staking",
        "label": "_paused",
        "offset": 0,
        "slot": "151",
        "type": "t_bool"
      },
      {
        "astId": 535,
        "contract": "contracts/Staking.sol:Staking",
        "label": "__gap",
        "offset": 0,
        "slot": "152",
        "type": "t_array(t_uint256)49_storage"
      },
      {
        "astId": 1783,
        "contract": "contracts/Staking.sol:Staking",
        "label": "depositAllowed",
        "offset": 0,
        "slot": "201",
        "type": "t_mapping(t_address,t_bool)"
      },
      {
        "astId": 1795,
        "contract": "contracts/Staking.sol:Staking",
        "label": "userInfos",
        "offset": 0,
        "slot": "202",
        "type": "t_mapping(t_address,t_mapping(t_address,t_struct(UserInfo)1788_storage))"
      },
      {
        "astId": 1797,
        "contract": "contracts/Staking.sol:Staking",
        "label": "depositNFT",
        "offset": 0,
        "slot": "203",
        "type": "t_address"
      },
      {
        "astId": 1799,
        "contract": "contracts/Staking.sol:Staking",
        "label": "ogNFT",
        "offset": 0,
        "slot": "204",
        "type": "t_address"
      },
      {
        "astId": 1802,
        "contract": "contracts/Staking.sol:Staking",
        "label": "STETH",
        "offset": 0,
        "slot": "205",
        "type": "t_contract(ILido)3010"
      },
      {
        "astId": 1805,
        "contract": "contracts/Staking.sol:Staking",
        "label": "WSTETH",
        "offset": 0,
        "slot": "206",
        "type": "t_contract(IWstETH)3082"
      },
      {
        "astId": 1807,
        "contract": "contracts/Staking.sol:Staking",
        "label": "withdrawalEnabled",
        "offset": 20,
        "slot": "206",
        "type": "t_bool"
      },
      {
        "astId": 1810,
        "contract": "contracts/Staking.sol:Staking",
        "label": "EMERGENCY_WITHDRAW_TIMESTAMP",
        "offset": 0,
        "slot": "207",
        "type": "t_uint256"
      },
      {
        "astId": 1813,
        "contract": "contracts/Staking.sol:Staking",
        "label": "mellowVault",
        "offset": 0,
        "slot": "208",
        "type": "t_contract(IMellowVault)3030"
      },
      {
        "astId": 1815,
        "contract": "contracts/Staking.sol:Staking",
        "label": "migrator",
        "offset": 0,
        "slot": "209",
        "type": "t_address"
      },
      {
        "astId": 1818,
        "contract": "contracts/Staking.sol:Staking",
        "label": "preStaking",
        "offset": 0,
        "slot": "210",
        "type": "t_contract(IPreStaking)1770"
      }
    ],
    "types": {
      "t_address": {
        "encoding": "inplace",
        "label": "address",
        "numberOfBytes": "20"
      },
      "t_array(t_uint256)49_storage": {
        "base": "t_uint256",
        "encoding": "inplace",
        "label": "uint256[49]",
        "numberOfBytes": "1568"
      },
      "t_array(t_uint256)50_storage": {
        "base": "t_uint256",
        "encoding": "inplace",
        "label": "uint256[50]",
        "numberOfBytes": "1600"
      },
      "t_bool": {
        "encoding": "inplace",
        "label": "bool",
        "numberOfBytes": "1"
      },
      "t_contract(ILido)3010": {
        "encoding": "inplace",
        "label": "contract ILido",
        "numberOfBytes": "20"
      },
      "t_contract(IMellowVault)3030": {
        "encoding": "inplace",
        "label": "contract IMellowVault",
        "numberOfBytes": "20"
      },
      "t_contract(IPreStaking)1770": {
        "encoding": "inplace",
        "label": "contract IPreStaking",
        "numberOfBytes": "20"
      },
      "t_contract(IWstETH)3082": {
        "encoding": "inplace",
        "label": "contract IWstETH",
        "numberOfBytes": "20"
      },
      "t_mapping(t_address,t_bool)": {
        "encoding": "mapping",
        "key": "t_address",
        "label": "mapping(address => bool)",
        "numberOfBytes": "32",
        "value": "t_bool"
      },
      "t_mapping(t_address,t_mapping(t_address,t_struct(UserInfo)1788_storage))": {
        "encoding": "mapping",
        "key": "t_address",
        "label": "mapping(address => mapping(address => struct Staking.UserInfo))",
        "numberOfBytes": "32",
        "value": "t_mapping(t_address,t_struct(UserInfo)1788_storage)"
      },
      "t_mapping(t_address,t_struct(UserInfo)1788_storage)": {
        "encoding": "mapping",
        "key": "t_address",
        "label": "mapping(address => struct Staking.UserInfo)",
        "numberOfBytes": "32",
        "value": "t_struct(UserInfo)1788_storage"
      },
      "t_struct(UserInfo)1788_storage": {
        "encoding": "inplace",
        "label": "struct Staking.UserInfo",
        "members": [
          {
            "astId": 1785,
            "contract": "contracts/Staking.sol:Staking",
            "label": "wrappedToken",
            "offset": 0,
            "slot": "0",
            "type": "t_address"
          },
          {
            "astId": 1787,
            "contract": "contracts/Staking.sol:Staking",
            "label": "wrappedAmount",
            "offset": 0,
            "slot": "1",
            "type": "t_uint256"
          }
        ],
        "numberOfBytes": "64"
      },
      "t_uint256": {
        "encoding": "inplace",
        "label": "uint256",
        "numberOfBytes": "32"
      },
      "t_uint8": {
        "encoding": "inplace",
        "label": "uint8",
        "numberOfBytes": "1"
      }
    }
  }
}