{
  "address": "0x6c87f5C23DdB092930Ed80324b2fafF46b5fb586",
  "abi": [
    {
      "inputs": [
        {
          "internalType": "address",
          "name": "_preStaking",
          "type": "address"
        },
        {
          "internalType": "uint256",
          "name": "_pid",
          "type": "uint256"
        },
        {
          "internalType": "contract IERC20",
          "name": "_want",
          "type": "address"
        },
        {
          "internalType": "contract ILido",
          "name": "_STETH",
          "type": "address"
        },
        {
          "internalType": "contract IWstETH",
          "name": "_WSTETH",
          "type": "address"
        }
      ],
      "stateMutability": "nonpayable",
      "type": "constructor"
    },
    {
      "inputs": [],
      "name": "STETH",
      "outputs": [
        {
          "internalType": "contract ILido",
          "name": "",
          "type": "address"
        }
      ],
      "stateMutability": "view",
      "type": "function"
    },
    {
      "inputs": [],
      "name": "WSTETH",
      "outputs": [
        {
          "internalType": "contract IWstETH",
          "name": "",
          "type": "address"
        }
      ],
      "stateMutability": "view",
      "type": "function"
    },
    {
      "inputs": [
        {
          "internalType": "address",
          "name": "_token",
          "type": "address"
        },
        {
          "internalType": "uint256",
          "name": "_amount",
          "type": "uint256"
        }
      ],
      "name": "deposit",
      "outputs": [
        {
          "internalType": "uint256",
          "name": "",
          "type": "uint256"
        }
      ],
      "stateMutability": "payable",
      "type": "function"
    },
    {
      "inputs": [],
      "name": "pid",
      "outputs": [
        {
          "internalType": "uint256",
          "name": "",
          "type": "uint256"
        }
      ],
      "stateMutability": "view",
      "type": "function"
    },
    {
      "inputs": [],
      "name": "preStaking",
      "outputs": [
        {
          "internalType": "address",
          "name": "",
          "type": "address"
        }
      ],
      "stateMutability": "view",
      "type": "function"
    },
    {
      "inputs": [
        {
          "internalType": "address",
          "name": "_token",
          "type": "address"
        },
        {
          "internalType": "uint256",
          "name": "_amount",
          "type": "uint256"
        }
      ],
      "name": "previewDeposit",
      "outputs": [
        {
          "internalType": "uint256",
          "name": "",
          "type": "uint256"
        }
      ],
      "stateMutability": "view",
      "type": "function"
    },
    {
      "inputs": [],
      "name": "want",
      "outputs": [
        {
          "internalType": "contract IERC20",
          "name": "",
          "type": "address"
        }
      ],
      "stateMutability": "view",
      "type": "function"
    }
  ],
  "transactionHash": "0x6d2ca34fa7932f8998179528d593184d93b5ea3126c9a21d549bf0602c78abab",
  "args": [
    "0x3BaC111A6F5ED6A554616373d5c7D858d7c10d88",
    "0",
    "0x7f39C581F595B53c5cb19bD0b3f8dA6c935E2Ca0",
    "0xae7ab96520DE3A18E5e111B5EaAb095312D7fE84",
    "0x7f39C581F595B53c5cb19bD0b3f8dA6c935E2Ca0"
  ],
  "numDeployments": 1,
  "solcInputHash": "2d996a8892b5c446e5e6c5fe5c88e2c6",
  "bytecode": "0x60806040523480156200001157600080fd5b5060405162000e9838038062000e988339810160408190526200003491620004ac565b600080546001600160a01b038088166001600160a01b03199283161790925560018690556002805492861692909116821790558590859085906200007c9084600019620000c8565b5050600380546001600160a01b038086166001600160a01b0319928316811790935560048054918616919092168117909155620000bd9250600019620000c8565b5050505050620005de565b801580620001465750604051636eb1769f60e11b81523060048201526001600160a01b03838116602483015284169063dd62ed3e90604401602060405180830381865afa1580156200011e573d6000803e3d6000fd5b505050506040513d601f19601f8201168201806040525081019062000144919062000520565b155b620001be5760405162461bcd60e51b815260206004820152603660248201527f5361666545524332303a20617070726f76652066726f6d206e6f6e2d7a65726f60448201527f20746f206e6f6e2d7a65726f20616c6c6f77616e63650000000000000000000060648201526084015b60405180910390fd5b604080516001600160a01b038416602482015260448082018490528251808303909101815260649091019091526020810180516001600160e01b0390811663095ea7b360e01b17909152620002169185916200021b16565b505050565b6040805180820190915260208082527f5361666545524332303a206c6f772d6c6576656c2063616c6c206661696c6564908201526000906200026a906001600160a01b038516908490620002ef565b90508051600014806200028e5750808060200190518101906200028e91906200053a565b620002165760405162461bcd60e51b815260206004820152602a60248201527f5361666545524332303a204552433230206f7065726174696f6e20646964206e6044820152691bdd081cdd58d8d9595960b21b6064820152608401620001b5565b606062000300848460008562000308565b949350505050565b6060824710156200036b5760405162461bcd60e51b815260206004820152602660248201527f416464726573733a20696e73756666696369656e742062616c616e636520666f6044820152651c8818d85b1b60d21b6064820152608401620001b5565b600080866001600160a01b031685876040516200038991906200058b565b60006040518083038185875af1925050503d8060008114620003c8576040519150601f19603f3d011682016040523d82523d6000602084013e620003cd565b606091505b509092509050620003e187838387620003ec565b979650505050505050565b606083156200046057825160000362000458576001600160a01b0385163b620004585760405162461bcd60e51b815260206004820152601d60248201527f416464726573733a2063616c6c20746f206e6f6e2d636f6e74726163740000006044820152606401620001b5565b508162000300565b620003008383815115620004775781518083602001fd5b8060405162461bcd60e51b8152600401620001b59190620005a9565b6001600160a01b0381168114620004a957600080fd5b50565b600080600080600060a08688031215620004c557600080fd5b8551620004d28162000493565b602087015160408801519196509450620004ec8162000493565b6060870151909350620004ff8162000493565b6080870151909250620005128162000493565b809150509295509295909350565b6000602082840312156200053357600080fd5b5051919050565b6000602082840312156200054d57600080fd5b815180151581146200055e57600080fd5b9392505050565b60005b838110156200058257818101518382015260200162000568565b50506000910152565b600082516200059f81846020870162000565565b9190910192915050565b6020815260008251806020840152620005ca81604085016020870162000565565b601f01601f19169190910160400192915050565b6108aa80620005ee6000396000f3fe6080604052600436106100705760003560e01c8063d9fb643a1161004e578063d9fb643a146100f3578063e00bfe5014610113578063f106845414610133578063ffc5dc221461014957600080fd5b80631f1fcd511461007557806347e7ef24146100b2578063b8f82b26146100d3575b600080fd5b34801561008157600080fd5b50600254610095906001600160a01b031681565b6040516001600160a01b0390911681526020015b60405180910390f35b6100c56100c036600461078e565b610169565b6040519081526020016100a9565b3480156100df57600080fd5b506100c56100ee36600461078e565b610186565b3480156100ff57600080fd5b50600454610095906001600160a01b031681565b34801561011f57600080fd5b50600354610095906001600160a01b031681565b34801561013f57600080fd5b506100c560015481565b34801561015557600080fd5b50600054610095906001600160a01b031681565b60006101758383610255565b61017d6102f8565b90505b92915050565b60006001600160a01b038316610208576004805460405162b0e38960e81b81529182018490526001600160a01b03169063b0e38900906024015b602060405180830381865afa1580156101dd573d6000803e3d6000fd5b505050506040513d601f19601f8201168201806040525081019061020191906107c6565b9050610180565b6003546001600160a01b039081169084160361024c576004805460405162b0e38960e81b81529182018490526001600160a01b03169063b0e38900906024016101c0565b50600092915050565b6001600160a01b0382166102be578034146102a95760405162461bcd60e51b815260206004820152600f60248201526e042ecc2d8eaca5adad2e6dac2e8c6d608b1b60448201526064015b60405180910390fd5b6102b2816103df565b506102bc81610450565b505b6003546001600160a01b03908116908316036102f4576102e96001600160a01b0383163330846104c9565b6102f281610450565b505b5050565b6002546040516370a0823160e01b815230600482015260009182916001600160a01b03909116906370a0823190602401602060405180830381865afa158015610345573d6000803e3d6000fd5b505050506040513d601f19601f8201168201806040525081019061036991906107c6565b600054600154604051638dbdbe6d60e01b81526004810191909152602481018390523360448201529192506001600160a01b031690638dbdbe6d90606401600060405180830381600087803b1580156103c157600080fd5b505af11580156103d5573d6000803e3d6000fd5b5092949350505050565b60035460405163a1903eab60e01b81523060048201526000916001600160a01b03169063a1903eab90849060240160206040518083038185885af115801561042b573d6000803e3d6000fd5b50505050506040513d601f19601f8201168201806040525081019061018091906107c6565b60048054604051630ea598cb60e41b815291820183905260009182916001600160a01b03169063ea598cb0906024016020604051808303816000875af115801561049e573d6000803e3d6000fd5b505050506040513d601f19601f820116820180604052508101906104c291906107c6565b9392505050565b604080516001600160a01b0385811660248301528416604482015260648082018490528251808303909101815260849091019091526020810180516001600160e01b03166323b872dd60e01b179052610523908590610529565b50505050565b600061057e826040518060400160405280602081526020017f5361666545524332303a206c6f772d6c6576656c2063616c6c206661696c6564815250856001600160a01b03166105fe9092919063ffffffff16565b905080516000148061059f57508080602001905181019061059f91906107df565b6102f25760405162461bcd60e51b815260206004820152602a60248201527f5361666545524332303a204552433230206f7065726174696f6e20646964206e6044820152691bdd081cdd58d8d9595960b21b60648201526084016102a0565b606061060d8484600085610615565b949350505050565b6060824710156106765760405162461bcd60e51b815260206004820152602660248201527f416464726573733a20696e73756666696369656e742062616c616e636520666f6044820152651c8818d85b1b60d21b60648201526084016102a0565b600080866001600160a01b031685876040516106929190610825565b60006040518083038185875af1925050503d80600081146106cf576040519150601f19603f3d011682016040523d82523d6000602084013e6106d4565b606091505b50915091506106e5878383876106f0565b979650505050505050565b6060831561075f578251600003610758576001600160a01b0385163b6107585760405162461bcd60e51b815260206004820152601d60248201527f416464726573733a2063616c6c20746f206e6f6e2d636f6e747261637400000060448201526064016102a0565b508161060d565b61060d83838151156107745781518083602001fd5b8060405162461bcd60e51b81526004016102a09190610841565b600080604083850312156107a157600080fd5b82356001600160a01b03811681146107b857600080fd5b946020939093013593505050565b6000602082840312156107d857600080fd5b5051919050565b6000602082840312156107f157600080fd5b815180151581146104c257600080fd5b60005b8381101561081c578181015183820152602001610804565b50506000910152565b60008251610837818460208701610801565b9190910192915050565b6020815260008251806020840152610860816040850160208701610801565b601f01601f1916919091016040019291505056fea2646970667358221220bb86db037a1e7e1e04d99891f8f661e9ed5e429a9972e37c9351db5d2fa5abd164736f6c63430008130033",
  "devdoc": {
    "kind": "dev",
    "methods": {},
    "version": 1
  },
  "userdoc": {
    "kind": "user",
    "methods": {},
    "version": 1
  },
  "storageLayout": {
    "storage": [
      {
        "astId": 4945,
        "contract": "contracts/v1/WstETHWrapper.sol:WstETHWrapper",
        "label": "preStaking",
        "offset": 0,
        "slot": "0",
        "type": "t_address"
      },
      {
        "astId": 4947,
        "contract": "contracts/v1/WstETHWrapper.sol:WstETHWrapper",
        "label": "pid",
        "offset": 0,
        "slot": "1",
        "type": "t_uint256"
      },
      {
        "astId": 4950,
        "contract": "contracts/v1/WstETHWrapper.sol:WstETHWrapper",
        "label": "want",
        "offset": 0,
        "slot": "2",
        "type": "t_contract(IERC20)2665"
      },
      {
        "astId": 5571,
        "contract": "contracts/v1/WstETHWrapper.sol:WstETHWrapper",
        "label": "STETH",
        "offset": 0,
        "slot": "3",
        "type": "t_contract(ILido)4527"
      },
      {
        "astId": 5574,
        "contract": "contracts/v1/WstETHWrapper.sol:WstETHWrapper",
        "label": "WSTETH",
        "offset": 0,
        "slot": "4",
        "type": "t_contract(IWstETH)4599"
      }
    ],
    "types": {
      "t_address": {
        "encoding": "inplace",
        "label": "address",
        "numberOfBytes": "20"
      },
      "t_contract(IERC20)2665": {
        "encoding": "inplace",
        "label": "contract IERC20",
        "numberOfBytes": "20"
      },
      "t_contract(ILido)4527": {
        "encoding": "inplace",
        "label": "contract ILido",
        "numberOfBytes": "20"
      },
      "t_contract(IWstETH)4599": {
        "encoding": "inplace",
        "label": "contract IWstETH",
        "numberOfBytes": "20"
      },
      "t_uint256": {
        "encoding": "inplace",
        "label": "uint256",
        "numberOfBytes": "32"
      }
    }
  }
}