{
  "address": "0x74dFFE1e68f41ec364517f1F2951047246c5DD4e",
  "abi": [
    {
      "inputs": [],
      "stateMutability": "nonpayable",
      "type": "constructor"
    },
    {
      "inputs": [],
      "name": "CallerIsNotDepositContract",
      "type": "error"
    },
    {
      "inputs": [],
      "name": "EOATransferPaused",
      "type": "error"
    },
    {
      "anonymous": false,
      "inputs": [
        {
          "indexed": true,
          "internalType": "address",
          "name": "owner",
          "type": "address"
        },
        {
          "indexed": true,
          "internalType": "address",
          "name": "approved",
          "type": "address"
        },
        {
          "indexed": true,
          "internalType": "uint256",
          "name": "tokenId",
          "type": "uint256"
        }
      ],
      "name": "Approval",
      "type": "event"
    },
    {
      "anonymous": false,
      "inputs": [
        {
          "indexed": true,
          "internalType": "address",
          "name": "owner",
          "type": "address"
        },
        {
          "indexed": true,
          "internalType": "address",
          "name": "operator",
          "type": "address"
        },
        {
          "indexed": false,
          "internalType": "bool",
          "name": "approved",
          "type": "bool"
        }
      ],
      "name": "ApprovalForAll",
      "type": "event"
    },
    {
      "anonymous": false,
      "inputs": [
        {
          "indexed": true,
          "internalType": "uint256",
          "name": "tokenId",
          "type": "uint256"
        },
        {
          "indexed": true,
          "internalType": "address",
          "name": "token",
          "type": "address"
        },
        {
          "indexed": false,
          "internalType": "uint256",
          "name": "amount",
          "type": "uint256"
        }
      ],
      "name": "Deposit",
      "type": "event"
    },
    {
      "anonymous": false,
      "inputs": [
        {
          "indexed": false,
          "internalType": "uint8",
          "name": "version",
          "type": "uint8"
        }
      ],
      "name": "Initialized",
      "type": "event"
    },
    {
      "anonymous": false,
      "inputs": [
        {
          "indexed": true,
          "internalType": "address",
          "name": "previousOwner",
          "type": "address"
        },
        {
          "indexed": true,
          "internalType": "address",
          "name": "newOwner",
          "type": "address"
        }
      ],
      "name": "OwnershipTransferStarted",
      "type": "event"
    },
    {
      "anonymous": false,
      "inputs": [
        {
          "indexed": true,
          "internalType": "address",
          "name": "previousOwner",
          "type": "address"
        },
        {
          "indexed": true,
          "internalType": "address",
          "name": "newOwner",
          "type": "address"
        }
      ],
      "name": "OwnershipTransferred",
      "type": "event"
    },
    {
      "anonymous": false,
      "inputs": [
        {
          "indexed": false,
          "internalType": "address",
          "name": "account",
          "type": "address"
        }
      ],
      "name": "Paused",
      "type": "event"
    },
    {
      "anonymous": false,
      "inputs": [
        {
          "indexed": true,
          "internalType": "address",
          "name": "from",
          "type": "address"
        },
        {
          "indexed": true,
          "internalType": "address",
          "name": "to",
          "type": "address"
        },
        {
          "indexed": true,
          "internalType": "uint256",
          "name": "tokenId",
          "type": "uint256"
        }
      ],
      "name": "Transfer",
      "type": "event"
    },
    {
      "anonymous": false,
      "inputs": [
        {
          "indexed": false,
          "internalType": "address",
          "name": "account",
          "type": "address"
        }
      ],
      "name": "Unpaused",
      "type": "event"
    },
    {
      "inputs": [],
      "name": "acceptOwnership",
      "outputs": [],
      "stateMutability": "nonpayable",
      "type": "function"
    },
    {
      "inputs": [
        {
          "internalType": "address",
          "name": "to",
          "type": "address"
        },
        {
          "internalType": "uint256",
          "name": "tokenId",
          "type": "uint256"
        }
      ],
      "name": "approve",
      "outputs": [],
      "stateMutability": "nonpayable",
      "type": "function"
    },
    {
      "inputs": [
        {
          "internalType": "address",
          "name": "owner",
          "type": "address"
        }
      ],
      "name": "balanceOf",
      "outputs": [
        {
          "internalType": "uint256",
          "name": "",
          "type": "uint256"
        }
      ],
      "stateMutability": "view",
      "type": "function"
    },
    {
      "inputs": [],
      "name": "baseURI",
      "outputs": [
        {
          "internalType": "string",
          "name": "",
          "type": "string"
        }
      ],
      "stateMutability": "view",
      "type": "function"
    },
    {
      "inputs": [],
      "name": "depositContract",
      "outputs": [
        {
          "internalType": "address",
          "name": "",
          "type": "address"
        }
      ],
      "stateMutability": "view",
      "type": "function"
    },
    {
      "inputs": [
        {
          "internalType": "uint256",
          "name": "tokenId",
          "type": "uint256"
        }
      ],
      "name": "depositInfo",
      "outputs": [
        {
          "internalType": "address",
          "name": "depositToken",
          "type": "address"
        },
        {
          "internalType": "uint256",
          "name": "amount",
          "type": "uint256"
        },
        {
          "internalType": "address",
          "name": "wrappedToken",
          "type": "address"
        },
        {
          "internalType": "uint256",
          "name": "wrappedAmount",
          "type": "uint256"
        }
      ],
      "stateMutability": "view",
      "type": "function"
    },
    {
      "inputs": [
        {
          "internalType": "uint256",
          "name": "tokenId",
          "type": "uint256"
        }
      ],
      "name": "getApproved",
      "outputs": [
        {
          "internalType": "address",
          "name": "",
          "type": "address"
        }
      ],
      "stateMutability": "view",
      "type": "function"
    },
    {
      "inputs": [
        {
          "internalType": "uint256",
          "name": "_tokenId",
          "type": "uint256"
        }
      ],
      "name": "getDepositInfo",
      "outputs": [
        {
          "internalType": "address",
          "name": "",
          "type": "address"
        },
        {
          "internalType": "uint256",
          "name": "",
          "type": "uint256"
        },
        {
          "internalType": "address",
          "name": "",
          "type": "address"
        },
        {
          "internalType": "uint256",
          "name": "",
          "type": "uint256"
        }
      ],
      "stateMutability": "view",
      "type": "function"
    },
    {
      "inputs": [
        {
          "internalType": "address",
          "name": "user",
          "type": "address"
        }
      ],
      "name": "getTokenIds",
      "outputs": [
        {
          "internalType": "uint256[]",
          "name": "",
          "type": "uint256[]"
        }
      ],
      "stateMutability": "view",
      "type": "function"
    },
    {
      "inputs": [
        {
          "internalType": "address",
          "name": "user",
          "type": "address"
        }
      ],
      "name": "getUserNftInfos",
      "outputs": [
        {
          "internalType": "address[]",
          "name": "depositTokens",
          "type": "address[]"
        },
        {
          "internalType": "uint256[]",
          "name": "amounts",
          "type": "uint256[]"
        },
        {
          "internalType": "address[]",
          "name": "wrappedTokens",
          "type": "address[]"
        },
        {
          "internalType": "uint256[]",
          "name": "wrappedAmounts",
          "type": "uint256[]"
        }
      ],
      "stateMutability": "view",
      "type": "function"
    },
    {
      "inputs": [],
      "name": "initialize",
      "outputs": [],
      "stateMutability": "nonpayable",
      "type": "function"
    },
    {
      "inputs": [
        {
          "internalType": "address",
          "name": "owner",
          "type": "address"
        },
        {
          "internalType": "address",
          "name": "operator",
          "type": "address"
        }
      ],
      "name": "isApprovedForAll",
      "outputs": [
        {
          "internalType": "bool",
          "name": "",
          "type": "bool"
        }
      ],
      "stateMutability": "view",
      "type": "function"
    },
    {
      "inputs": [],
      "name": "name",
      "outputs": [
        {
          "internalType": "string",
          "name": "",
          "type": "string"
        }
      ],
      "stateMutability": "view",
      "type": "function"
    },
    {
      "inputs": [],
      "name": "owner",
      "outputs": [
        {
          "internalType": "address",
          "name": "",
          "type": "address"
        }
      ],
      "stateMutability": "view",
      "type": "function"
    },
    {
      "inputs": [
        {
          "internalType": "uint256",
          "name": "tokenId",
          "type": "uint256"
        }
      ],
      "name": "ownerOf",
      "outputs": [
        {
          "internalType": "address",
          "name": "",
          "type": "address"
        }
      ],
      "stateMutability": "view",
      "type": "function"
    },
    {
      "inputs": [],
      "name": "pause",
      "outputs": [],
      "stateMutability": "nonpayable",
      "type": "function"
    },
    {
      "inputs": [],
      "name": "paused",
      "outputs": [
        {
          "internalType": "bool",
          "name": "",
          "type": "bool"
        }
      ],
      "stateMutability": "view",
      "type": "function"
    },
    {
      "inputs": [],
      "name": "pendingOwner",
      "outputs": [
        {
          "internalType": "address",
          "name": "",
          "type": "address"
        }
      ],
      "stateMutability": "view",
      "type": "function"
    },
    {
      "inputs": [],
      "name": "renounceOwnership",
      "outputs": [],
      "stateMutability": "nonpayable",
      "type": "function"
    },
    {
      "inputs": [
        {
          "internalType": "address",
          "name": "to",
          "type": "address"
        },
        {
          "internalType": "address",
          "name": "token",
          "type": "address"
        },
        {
          "internalType": "uint256",
          "name": "amount",
          "type": "uint256"
        },
        {
          "internalType": "address",
          "name": "wrappedToken",
          "type": "address"
        },
        {
          "internalType": "uint256",
          "name": "wrappedAmount",
          "type": "uint256"
        }
      ],
      "name": "safeMint",
      "outputs": [],
      "stateMutability": "nonpayable",
      "type": "function"
    },
    {
      "inputs": [
        {
          "internalType": "address",
          "name": "from",
          "type": "address"
        },
        {
          "internalType": "address",
          "name": "to",
          "type": "address"
        },
        {
          "internalType": "uint256",
          "name": "tokenId",
          "type": "uint256"
        }
      ],
      "name": "safeTransferFrom",
      "outputs": [],
      "stateMutability": "nonpayable",
      "type": "function"
    },
    {
      "inputs": [
        {
          "internalType": "address",
          "name": "from",
          "type": "address"
        },
        {
          "internalType": "address",
          "name": "to",
          "type": "address"
        },
        {
          "internalType": "uint256",
          "name": "tokenId",
          "type": "uint256"
        },
        {
          "internalType": "bytes",
          "name": "data",
          "type": "bytes"
        }
      ],
      "name": "safeTransferFrom",
      "outputs": [],
      "stateMutability": "nonpayable",
      "type": "function"
    },
    {
      "inputs": [
        {
          "internalType": "address",
          "name": "operator",
          "type": "address"
        },
        {
          "internalType": "bool",
          "name": "approved",
          "type": "bool"
        }
      ],
      "name": "setApprovalForAll",
      "outputs": [],
      "stateMutability": "nonpayable",
      "type": "function"
    },
    {
      "inputs": [
        {
          "internalType": "string",
          "name": "baseURI_",
          "type": "string"
        }
      ],
      "name": "setBaseURI",
      "outputs": [],
      "stateMutability": "nonpayable",
      "type": "function"
    },
    {
      "inputs": [
        {
          "internalType": "address",
          "name": "depositContract_",
          "type": "address"
        }
      ],
      "name": "setDepositContract",
      "outputs": [],
      "stateMutability": "nonpayable",
      "type": "function"
    },
    {
      "inputs": [
        {
          "internalType": "bytes4",
          "name": "interfaceId",
          "type": "bytes4"
        }
      ],
      "name": "supportsInterface",
      "outputs": [
        {
          "internalType": "bool",
          "name": "",
          "type": "bool"
        }
      ],
      "stateMutability": "view",
      "type": "function"
    },
    {
      "inputs": [],
      "name": "symbol",
      "outputs": [
        {
          "internalType": "string",
          "name": "",
          "type": "string"
        }
      ],
      "stateMutability": "view",
      "type": "function"
    },
    {
      "inputs": [
        {
          "internalType": "uint256",
          "name": "index",
          "type": "uint256"
        }
      ],
      "name": "tokenByIndex",
      "outputs": [
        {
          "internalType": "uint256",
          "name": "",
          "type": "uint256"
        }
      ],
      "stateMutability": "view",
      "type": "function"
    },
    {
      "inputs": [
        {
          "internalType": "address",
          "name": "owner",
          "type": "address"
        },
        {
          "internalType": "uint256",
          "name": "index",
          "type": "uint256"
        }
      ],
      "name": "tokenOfOwnerByIndex",
      "outputs": [
        {
          "internalType": "uint256",
          "name": "",
          "type": "uint256"
        }
      ],
      "stateMutability": "view",
      "type": "function"
    },
    {
      "inputs": [
        {
          "internalType": "uint256",
          "name": "tokenId",
          "type": "uint256"
        }
      ],
      "name": "tokenURI",
      "outputs": [
        {
          "internalType": "string",
          "name": "",
          "type": "string"
        }
      ],
      "stateMutability": "view",
      "type": "function"
    },
    {
      "inputs": [],
      "name": "totalSupply",
      "outputs": [
        {
          "internalType": "uint256",
          "name": "",
          "type": "uint256"
        }
      ],
      "stateMutability": "view",
      "type": "function"
    },
    {
      "inputs": [
        {
          "internalType": "address",
          "name": "from",
          "type": "address"
        },
        {
          "internalType": "address",
          "name": "to",
          "type": "address"
        },
        {
          "internalType": "uint256",
          "name": "tokenId",
          "type": "uint256"
        }
      ],
      "name": "transferFrom",
      "outputs": [],
      "stateMutability": "nonpayable",
      "type": "function"
    },
    {
      "inputs": [
        {
          "internalType": "address",
          "name": "newOwner",
          "type": "address"
        }
      ],
      "name": "transferOwnership",
      "outputs": [],
      "stateMutability": "nonpayable",
      "type": "function"
    },
    {
      "inputs": [],
      "name": "unpause",
      "outputs": [],
      "stateMutability": "nonpayable",
      "type": "function"
    }
  ],
  "transactionHash": "0xa4e8f2990f5d644c0afc01854a3f65d5391442301110c0d3b5112715a9609c3f",
  "args": [],
  "numDeployments": 2,
  "solcInputHash": "0a7e35443443168483b99b10e91d85fe",
  "bytecode": "0x60806040523480156200001157600080fd5b506200001c62000022565b620000e3565b600054610100900460ff16156200008f5760405162461bcd60e51b815260206004820152602760248201527f496e697469616c697a61626c653a20636f6e747261637420697320696e697469604482015266616c697a696e6760c81b606482015260840160405180910390fd5b60005460ff90811614620000e1576000805460ff191660ff9081179091556040519081527f7f26b83ff96e1f2b6a682f133852f6798a09c465da95921460cefb38474024989060200160405180910390a15b565b61286080620000f36000396000f3fe608060405234801561001057600080fd5b50600436106102065760003560e01c806370a082311161011a578063a5cfd6ed116100ad578063db8d5a951161007c578063db8d5a951461048e578063e30c3978146104a1578063e94ad65b146104b3578063e985e9c5146104c7578063f2fde38b1461050357600080fd5b8063a5cfd6ed14610425578063b88d4fde14610448578063c87b56dd1461045b578063d004b0361461046e57600080fd5b80638456cb59116100e95780638456cb59146103f15780638da5cb5b146103f957806395d89b411461040a578063a22cb4651461041257600080fd5b806370a08231146103c6578063715018a6146103d957806379ba5097146103e15780638129fc1c146103e957600080fd5b8063317d7a2b1161019d5780635328c2bf1161016c5780635328c2bf1461037a57806355f804b31461038d5780635c975abb146103a05780636352211e146103ab5780636c0360eb146103be57600080fd5b8063317d7a2b146102d35780633f4ba83a1461034c57806342842e0e146103545780634f6ccce71461036757600080fd5b80630ec2e821116101d95780630ec2e8211461028857806318160ddd1461029b57806323b872dd146102ad5780632f745c59146102c057600080fd5b806301ffc9a71461020b57806306fdde0314610233578063081812fc14610248578063095ea7b314610273575b600080fd5b61021e610219366004612092565b610516565b60405190151581526020015b60405180910390f35b61023b610527565b60405161022a91906120ff565b61025b610256366004612112565b6105b9565b6040516001600160a01b03909116815260200161022a565b610286610281366004612147565b6105e0565b005b610286610296366004612171565b6106fa565b6099545b60405190815260200161022a565b6102866102bb36600461218c565b610725565b61029f6102ce366004612147565b610756565b6103176102e1366004612112565b6101626020526000908152604090208054600182015460028301546003909301546001600160a01b039283169391929091169084565b60405161022a94939291906001600160a01b039485168152602081019390935292166040820152606081019190915260800190565b6102866107ec565b61028661036236600461218c565b6107fe565b61029f610375366004612112565b610819565b610317610388366004612112565b6108ac565b61028661039b366004612254565b610905565b60c95460ff1661021e565b61025b6103b9366004612112565b61091e565b61023b61097e565b61029f6103d4366004612171565b610a0d565b610286610a93565b610286610aa5565b610286610b20565b610286610c91565b60fb546001600160a01b031661025b565b61023b610ca1565b61028661042036600461229d565b610cb0565b610438610433366004612171565b610cbb565b60405161022a949392919061234d565b6102866104563660046123a5565b610ee6565b61023b610469366004612112565b610f1e565b61048161047c366004612171565b610f85565b60405161022a9190612421565b61028661049c366004612434565b611029565b61012d546001600160a01b031661025b565b6101615461025b906001600160a01b031681565b61021e6104d5366004612489565b6001600160a01b039182166000908152606a6020908152604080832093909416825291909152205460ff1690565b610286610511366004612171565b611135565b6000610521826111a7565b92915050565b606060658054610536906124bc565b80601f0160208091040260200160405190810160405280929190818152602001828054610562906124bc565b80156105af5780601f10610584576101008083540402835291602001916105af565b820191906000526020600020905b81548152906001019060200180831161059257829003601f168201915b5050505050905090565b60006105c4826111cc565b506000908152606960205260409020546001600160a01b031690565b60006105eb8261091e565b9050806001600160a01b0316836001600160a01b03160361065d5760405162461bcd60e51b815260206004820152602160248201527f4552433732313a20617070726f76616c20746f2063757272656e74206f776e656044820152603960f91b60648201526084015b60405180910390fd5b336001600160a01b0382161480610679575061067981336104d5565b6106eb5760405162461bcd60e51b815260206004820152603d60248201527f4552433732313a20617070726f76652063616c6c6572206973206e6f7420746f60448201527f6b656e206f776e6572206f7220617070726f76656420666f7220616c6c0000006064820152608401610654565b6106f5838361122b565b505050565b610702611299565b61016180546001600160a01b0319166001600160a01b0392909216919091179055565b61072f33826112f3565b61074b5760405162461bcd60e51b8152600401610654906124f6565b6106f5838383611372565b600061076183610a0d565b82106107c35760405162461bcd60e51b815260206004820152602b60248201527f455243373231456e756d657261626c653a206f776e657220696e646578206f7560448201526a74206f6620626f756e647360a81b6064820152608401610654565b506001600160a01b03919091166000908152609760209081526040808320938352929052205490565b6107f4611299565b6107fc6114e3565b565b6106f583838360405180602001604052806000815250610ee6565b600061082460995490565b82106108875760405162461bcd60e51b815260206004820152602c60248201527f455243373231456e756d657261626c653a20676c6f62616c20696e646578206f60448201526b7574206f6620626f756e647360a01b6064820152608401610654565b6099828154811061089a5761089a612543565b90600052602060002001549050919050565b60009081526101626020908152604091829020825160808101845281546001600160a01b039081168083526001840154948301859052600284015490911694820185905260039092015460609091018190529093919291565b61090d611299565b61016061091a82826125a7565b5050565b6000818152606760205260408120546001600160a01b0316806105215760405162461bcd60e51b8152602060048201526018602482015277115490cdcc8c4e881a5b9d985b1a59081d1bdad95b88125160421b6044820152606401610654565b610160805461098c906124bc565b80601f01602080910402602001604051908101604052809291908181526020018280546109b8906124bc565b8015610a055780601f106109da57610100808354040283529160200191610a05565b820191906000526020600020905b8154815290600101906020018083116109e857829003601f168201915b505050505081565b60006001600160a01b038216610a775760405162461bcd60e51b815260206004820152602960248201527f4552433732313a2061646472657373207a65726f206973206e6f7420612076616044820152683634b21037bbb732b960b91b6064820152608401610654565b506001600160a01b031660009081526068602052604090205490565b610a9b611299565b6107fc6000611535565b61012d5433906001600160a01b03168114610b145760405162461bcd60e51b815260206004820152602960248201527f4f776e61626c6532537465703a2063616c6c6572206973206e6f7420746865206044820152683732bb9037bbb732b960b91b6064820152608401610654565b610b1d81611535565b50565b600054610100900460ff1615808015610b405750600054600160ff909116105b80610b5a5750303b158015610b5a575060005460ff166001145b610bbd5760405162461bcd60e51b815260206004820152602e60248201527f496e697469616c697a61626c653a20636f6e747261637420697320616c72656160448201526d191e481a5b9a5d1a585b1a5e995960921b6064820152608401610654565b6000805460ff191660011790558015610be0576000805461ff0019166101001790555b610c296040518060400160405280600a81526020016911195c1bdcda5d13919560b21b81525060405180604001604052806005815260200164191953919560da1b81525061154f565b610c31611580565b610c396115af565b610c416115de565b610c49611605565b8015610b1d576000805461ff0019169055604051600181527f7f26b83ff96e1f2b6a682f133852f6798a09c465da95921460cefb38474024989060200160405180910390a150565b610c99611299565b6107fc611605565b606060668054610536906124bc565b61091a338383611642565b6060806060806000610ccc86610f85565b9050805167ffffffffffffffff811115610ce857610ce86121c8565b604051908082528060200260200182016040528015610d11578160200160208202803683370190505b509450805167ffffffffffffffff811115610d2e57610d2e6121c8565b604051908082528060200260200182016040528015610d57578160200160208202803683370190505b509350805167ffffffffffffffff811115610d7457610d746121c8565b604051908082528060200260200182016040528015610d9d578160200160208202803683370190505b509250805167ffffffffffffffff811115610dba57610dba6121c8565b604051908082528060200260200182016040528015610de3578160200160208202803683370190505b50915060005b8151811015610edd57600080600080610e1a868681518110610e0d57610e0d612543565b60200260200101516108ac565b9350935093509350838a8681518110610e3557610e35612543565b60200260200101906001600160a01b031690816001600160a01b03168152505082898681518110610e6857610e68612543565b60200260200101818152505081888681518110610e8757610e87612543565b60200260200101906001600160a01b031690816001600160a01b03168152505080878681518110610eba57610eba612543565b602002602001018181525050505050508080610ed59061267d565b915050610de9565b50509193509193565b610ef033836112f3565b610f0c5760405162461bcd60e51b8152600401610654906124f6565b610f1884848484611710565b50505050565b6060610f29826111cc565b6000610f33611743565b90506000815111610f535760405180602001604052806000815250610f7e565b80610f5d84611753565b604051602001610f6e929190612696565b6040516020818303038152906040525b9392505050565b60606000610f9283610a0d565b67ffffffffffffffff811115610faa57610faa6121c8565b604051908082528060200260200182016040528015610fd3578160200160208202803683370190505b50905060005b610fe284610a0d565b81101561102257610ff38482610756565b82828151811061100557611005612543565b60209081029190910101528061101a8161267d565b915050610fd9565b5092915050565b610161546001600160a01b031633146110585760405160016212773360e11b0319815260040160405180910390fd5b61015f80546000918261106a8361267d565b91905055905061107a86826117e6565b604080516080810182526001600160a01b03808816808352602080840189815288841685870190815260608601898152600089815261016290945292879020955186549086166001600160a01b03199182161787559151600187015551600286018054919095169116179092559051600390920191909155905182907feaa18152488ce5959073c9c79c88ca90b3d96c00de1f118cfaad664c3dab06b9906111259088815260200190565b60405180910390a3505050505050565b61113d611299565b61012d80546001600160a01b0383166001600160a01b0319909116811790915561116f60fb546001600160a01b031690565b6001600160a01b03167f38d16b8cac22d99fc7c124b9cd0de2d3fa1faef420bfe791d8c362d765e2270060405160405180910390a350565b60006001600160e01b0319821663780e9d6360e01b1480610521575061052182611800565b6000818152606760205260409020546001600160a01b0316610b1d5760405162461bcd60e51b8152602060048201526018602482015277115490cdcc8c4e881a5b9d985b1a59081d1bdad95b88125160421b6044820152606401610654565b600081815260696020526040902080546001600160a01b0319166001600160a01b03841690811790915581906112608261091e565b6001600160a01b03167f8c5be1e5ebec7d5bd14f71427d1e84f3dd0314c0f7b2291e5b200ac8c7c3b92560405160405180910390a45050565b60fb546001600160a01b031633146107fc5760405162461bcd60e51b815260206004820181905260248201527f4f776e61626c653a2063616c6c6572206973206e6f7420746865206f776e65726044820152606401610654565b6000806112ff8361091e565b9050806001600160a01b0316846001600160a01b0316148061134657506001600160a01b038082166000908152606a602090815260408083209388168352929052205460ff165b8061136a5750836001600160a01b031661135f846105b9565b6001600160a01b0316145b949350505050565b826001600160a01b03166113858261091e565b6001600160a01b0316146113ab5760405162461bcd60e51b8152600401610654906126c5565b6001600160a01b03821661140d5760405162461bcd60e51b8152602060048201526024808201527f4552433732313a207472616e7366657220746f20746865207a65726f206164646044820152637265737360e01b6064820152608401610654565b61141a8383836001611850565b826001600160a01b031661142d8261091e565b6001600160a01b0316146114535760405162461bcd60e51b8152600401610654906126c5565b600081815260696020908152604080832080546001600160a01b03199081169091556001600160a01b0387811680865260688552838620805460001901905590871680865283862080546001019055868652606790945282852080549092168417909155905184937fddf252ad1be2c89b69c2b068fc378daa952ba7f163c4a11628f55a4df523b3ef91a4505050565b6114eb61188f565b60c9805460ff191690557f5db9ee0a495bf2e6ff9c91a7834c1ba4fdd244a5e8aa4e537bd38aeae4b073aa335b6040516001600160a01b03909116815260200160405180910390a1565b61012d80546001600160a01b0319169055610b1d816118d8565b600054610100900460ff166115765760405162461bcd60e51b81526004016106549061270a565b61091a828261192a565b600054610100900460ff166115a75760405162461bcd60e51b81526004016106549061270a565b6107fc61196a565b600054610100900460ff166115d65760405162461bcd60e51b81526004016106549061270a565b6107fc61199a565b600054610100900460ff166107fc5760405162461bcd60e51b81526004016106549061270a565b61160d6119cd565b60c9805460ff191660011790557f62e78cea01bee320cd4e420270b5ea74000d11b0c9f74754ebdbfc544b05a2586115183390565b816001600160a01b0316836001600160a01b0316036116a35760405162461bcd60e51b815260206004820152601960248201527f4552433732313a20617070726f766520746f2063616c6c6572000000000000006044820152606401610654565b6001600160a01b038381166000818152606a6020908152604080832094871680845294825291829020805460ff191686151590811790915591519182527f17307eab39ab6107e8899845ad3d59bd9653f200f220920489ca2b5937696c31910160405180910390a3505050565b61171b848484611372565b61172784848484611a13565b610f185760405162461bcd60e51b815260040161065490612755565b60606101608054610536906124bc565b6060600061176083611b14565b600101905060008167ffffffffffffffff811115611780576117806121c8565b6040519080825280601f01601f1916602001820160405280156117aa576020820181803683370190505b5090508181016020015b600019016f181899199a1a9b1b9c1cb0b131b232b360811b600a86061a8153600a85049450846117b457509392505050565b61091a828260405180602001604052806000815250611bec565b60006001600160e01b031982166380ac58cd60e01b148061183157506001600160e01b03198216635b5e139f60e01b145b8061052157506301ffc9a760e01b6001600160e01b0319831614610521565b60c95460ff1615611883576001600160a01b03841615611883576040516350f676bf60e01b815260040160405180910390fd5b610f1884848484611c1f565b60c95460ff166107fc5760405162461bcd60e51b815260206004820152601460248201527314185d5cd8589b194e881b9bdd081c185d5cd95960621b6044820152606401610654565b60fb80546001600160a01b038381166001600160a01b0319831681179093556040519116919082907f8be0079c531659141344cd1fd0a4f28419497f9722a3daafe3b4186f6b6457e090600090a35050565b600054610100900460ff166119515760405162461bcd60e51b81526004016106549061270a565b606561195d83826125a7565b5060666106f582826125a7565b600054610100900460ff166119915760405162461bcd60e51b81526004016106549061270a565b6107fc33611535565b600054610100900460ff166119c15760405162461bcd60e51b81526004016106549061270a565b60c9805460ff19169055565b60c95460ff16156107fc5760405162461bcd60e51b815260206004820152601060248201526f14185d5cd8589b194e881c185d5cd95960821b6044820152606401610654565b60006001600160a01b0384163b15611b0957604051630a85bd0160e11b81526001600160a01b0385169063150b7a0290611a579033908990889088906004016127a7565b6020604051808303816000875af1925050508015611a92575060408051601f3d908101601f19168201909252611a8f918101906127e4565b60015b611aef573d808015611ac0576040519150601f19603f3d011682016040523d82523d6000602084013e611ac5565b606091505b508051600003611ae75760405162461bcd60e51b815260040161065490612755565b805181602001fd5b6001600160e01b031916630a85bd0160e11b14905061136a565b506001949350505050565b60008072184f03e93ff9f4daa797ed6e38ed64bf6a1f0160401b8310611b535772184f03e93ff9f4daa797ed6e38ed64bf6a1f0160401b830492506040015b6d04ee2d6d415b85acef81000000008310611b7f576d04ee2d6d415b85acef8100000000830492506020015b662386f26fc100008310611b9d57662386f26fc10000830492506010015b6305f5e1008310611bb5576305f5e100830492506008015b6127108310611bc957612710830492506004015b60648310611bdb576064830492506002015b600a83106105215760010192915050565b611bf68383611d53565b611c036000848484611a13565b6106f55760405162461bcd60e51b815260040161065490612755565b6001811115611c8e5760405162461bcd60e51b815260206004820152603560248201527f455243373231456e756d657261626c653a20636f6e7365637574697665207472604482015274185b9cd9995c9cc81b9bdd081cdd5c1c1bdc9d1959605a1b6064820152608401610654565b816001600160a01b038516611cea57611ce581609980546000838152609a60205260408120829055600182018355919091527f72a152ddfb8e864297c917af52ea6c1c68aead0fee1a62673fcc7e0c94979d000155565b611d0d565b836001600160a01b0316856001600160a01b031614611d0d57611d0d8582611eec565b6001600160a01b038416611d2957611d2481611f89565b611d4c565b846001600160a01b0316846001600160a01b031614611d4c57611d4c8482612038565b5050505050565b6001600160a01b038216611da95760405162461bcd60e51b815260206004820181905260248201527f4552433732313a206d696e7420746f20746865207a65726f20616464726573736044820152606401610654565b6000818152606760205260409020546001600160a01b031615611e0e5760405162461bcd60e51b815260206004820152601c60248201527f4552433732313a20746f6b656e20616c7265616479206d696e746564000000006044820152606401610654565b611e1c600083836001611850565b6000818152606760205260409020546001600160a01b031615611e815760405162461bcd60e51b815260206004820152601c60248201527f4552433732313a20746f6b656e20616c7265616479206d696e746564000000006044820152606401610654565b6001600160a01b038216600081815260686020908152604080832080546001019055848352606790915280822080546001600160a01b0319168417905551839291907fddf252ad1be2c89b69c2b068fc378daa952ba7f163c4a11628f55a4df523b3ef908290a45050565b60006001611ef984610a0d565b611f039190612801565b600083815260986020526040902054909150808214611f56576001600160a01b03841660009081526097602090815260408083208584528252808320548484528184208190558352609890915290208190555b5060009182526098602090815260408084208490556001600160a01b039094168352609781528383209183525290812055565b609954600090611f9b90600190612801565b6000838152609a602052604081205460998054939450909284908110611fc357611fc3612543565b906000526020600020015490508060998381548110611fe457611fe4612543565b6000918252602080832090910192909255828152609a9091526040808220849055858252812055609980548061201c5761201c612814565b6001900381819060005260206000200160009055905550505050565b600061204383610a0d565b6001600160a01b039093166000908152609760209081526040808320868452825280832085905593825260989052919091209190915550565b6001600160e01b031981168114610b1d57600080fd5b6000602082840312156120a457600080fd5b8135610f7e8161207c565b60005b838110156120ca5781810151838201526020016120b2565b50506000910152565b600081518084526120eb8160208601602086016120af565b601f01601f19169290920160200192915050565b602081526000610f7e60208301846120d3565b60006020828403121561212457600080fd5b5035919050565b80356001600160a01b038116811461214257600080fd5b919050565b6000806040838503121561215a57600080fd5b6121638361212b565b946020939093013593505050565b60006020828403121561218357600080fd5b610f7e8261212b565b6000806000606084860312156121a157600080fd5b6121aa8461212b565b92506121b86020850161212b565b9150604084013590509250925092565b634e487b7160e01b600052604160045260246000fd5b600067ffffffffffffffff808411156121f9576121f96121c8565b604051601f8501601f19908116603f01168101908282118183101715612221576122216121c8565b8160405280935085815286868601111561223a57600080fd5b858560208301376000602087830101525050509392505050565b60006020828403121561226657600080fd5b813567ffffffffffffffff81111561227d57600080fd5b8201601f8101841361228e57600080fd5b61136a848235602084016121de565b600080604083850312156122b057600080fd5b6122b98361212b565b9150602083013580151581146122ce57600080fd5b809150509250929050565b600081518084526020808501945080840160005b838110156123125781516001600160a01b0316875295820195908201906001016122ed565b509495945050505050565b600081518084526020808501945080840160005b8381101561231257815187529582019590820190600101612331565b60808152600061236060808301876122d9565b8281036020840152612372818761231d565b9050828103604084015261238681866122d9565b9050828103606084015261239a818561231d565b979650505050505050565b600080600080608085870312156123bb57600080fd5b6123c48561212b565b93506123d26020860161212b565b925060408501359150606085013567ffffffffffffffff8111156123f557600080fd5b8501601f8101871361240657600080fd5b612415878235602084016121de565b91505092959194509250565b602081526000610f7e602083018461231d565b600080600080600060a0868803121561244c57600080fd5b6124558661212b565b94506124636020870161212b565b9350604086013592506124786060870161212b565b949793965091946080013592915050565b6000806040838503121561249c57600080fd5b6124a58361212b565b91506124b36020840161212b565b90509250929050565b600181811c908216806124d057607f821691505b6020821081036124f057634e487b7160e01b600052602260045260246000fd5b50919050565b6020808252602d908201527f4552433732313a2063616c6c6572206973206e6f7420746f6b656e206f776e6560408201526c1c881bdc88185c1c1c9bdd9959609a1b606082015260800190565b634e487b7160e01b600052603260045260246000fd5b601f8211156106f557600081815260208120601f850160051c810160208610156125805750805b601f850160051c820191505b8181101561259f5782815560010161258c565b505050505050565b815167ffffffffffffffff8111156125c1576125c16121c8565b6125d5816125cf84546124bc565b84612559565b602080601f83116001811461260a57600084156125f25750858301515b600019600386901b1c1916600185901b17855561259f565b600085815260208120601f198616915b828110156126395788860151825594840194600190910190840161261a565b50858210156126575787850151600019600388901b60f8161c191681555b5050505050600190811b01905550565b634e487b7160e01b600052601160045260246000fd5b60006001820161268f5761268f612667565b5060010190565b600083516126a88184602088016120af565b8351908301906126bc8183602088016120af565b01949350505050565b60208082526025908201527f4552433732313a207472616e736665722066726f6d20696e636f72726563742060408201526437bbb732b960d91b606082015260800190565b6020808252602b908201527f496e697469616c697a61626c653a20636f6e7472616374206973206e6f74206960408201526a6e697469616c697a696e6760a81b606082015260800190565b60208082526032908201527f4552433732313a207472616e7366657220746f206e6f6e20455243373231526560408201527131b2b4bb32b91034b6b83632b6b2b73a32b960711b606082015260800190565b6001600160a01b03858116825284166020820152604081018390526080606082018190526000906127da908301846120d3565b9695505050505050565b6000602082840312156127f657600080fd5b8151610f7e8161207c565b8181038181111561052157610521612667565b634e487b7160e01b600052603160045260246000fdfea2646970667358221220df81782465b1d700870448855c0eeec579d3e2dafc82bc44b785f6711e831e6464736f6c63430008130033",
  "devdoc": {
    "events": {
      "Approval(address,address,uint256)": {
        "details": "Emitted when `owner` enables `approved` to manage the `tokenId` token."
      },
      "ApprovalForAll(address,address,bool)": {
        "details": "Emitted when `owner` enables or disables (`approved`) `operator` to manage all of its assets."
      },
      "Initialized(uint8)": {
        "details": "Triggered when the contract has been initialized or reinitialized."
      },
      "Paused(address)": {
        "details": "Emitted when the pause is triggered by `account`."
      },
      "Transfer(address,address,uint256)": {
        "details": "Emitted when `tokenId` token is transferred from `from` to `to`."
      },
      "Unpaused(address)": {
        "details": "Emitted when the pause is lifted by `account`."
      }
    },
    "kind": "dev",
    "methods": {
      "acceptOwnership()": {
        "details": "The new owner accepts the ownership transfer."
      },
      "approve(address,uint256)": {
        "details": "See {IERC721-approve}."
      },
      "balanceOf(address)": {
        "details": "See {IERC721-balanceOf}."
      },
      "getApproved(uint256)": {
        "details": "See {IERC721-getApproved}."
      },
      "getTokenIds(address)": {
        "params": {
          "user": "user address"
        },
        "returns": {
          "_0": "uint256[] token ids"
        }
      },
      "isApprovedForAll(address,address)": {
        "details": "See {IERC721-isApprovedForAll}."
      },
      "name()": {
        "details": "See {IERC721Metadata-name}."
      },
      "owner()": {
        "details": "Returns the address of the current owner."
      },
      "ownerOf(uint256)": {
        "details": "See {IERC721-ownerOf}."
      },
      "paused()": {
        "details": "Returns true if the contract is paused, and false otherwise."
      },
      "pendingOwner()": {
        "details": "Returns the address of the pending owner."
      },
      "renounceOwnership()": {
        "details": "Leaves the contract without owner. It will not be possible to call `onlyOwner` functions. Can only be called by the current owner. NOTE: Renouncing ownership will leave the contract without an owner, thereby disabling any functionality that is only available to the owner."
      },
      "safeTransferFrom(address,address,uint256)": {
        "details": "See {IERC721-safeTransferFrom}."
      },
      "safeTransferFrom(address,address,uint256,bytes)": {
        "details": "See {IERC721-safeTransferFrom}."
      },
      "setApprovalForAll(address,bool)": {
        "details": "See {IERC721-setApprovalForAll}."
      },
      "symbol()": {
        "details": "See {IERC721Metadata-symbol}."
      },
      "tokenByIndex(uint256)": {
        "details": "See {IERC721Enumerable-tokenByIndex}."
      },
      "tokenOfOwnerByIndex(address,uint256)": {
        "details": "See {IERC721Enumerable-tokenOfOwnerByIndex}."
      },
      "tokenURI(uint256)": {
        "details": "See {IERC721Metadata-tokenURI}."
      },
      "totalSupply()": {
        "details": "See {IERC721Enumerable-totalSupply}."
      },
      "transferFrom(address,address,uint256)": {
        "details": "See {IERC721-transferFrom}."
      },
      "transferOwnership(address)": {
        "details": "Starts the ownership transfer of the contract to a new account. Replaces the pending transfer if there is one. Can only be called by the current owner."
      }
    },
    "version": 1
  },
  "userdoc": {
    "kind": "user",
    "methods": {
      "getTokenIds(address)": {
        "notice": "Get Token Ids of a user"
      },
      "pause()": {
        "notice": "Pause deposits to the bridge (admin only)"
      },
      "unpause()": {
        "notice": "Unpause deposits to the bridge (admin only)"
      }
    },
    "version": 1
  },
  "storageLayout": {
    "storage": [
      {
        "astId": 246,
        "contract": "contracts/DepositNFT.sol:DepositNFT",
        "label": "_initialized",
        "offset": 0,
        "slot": "0",
        "type": "t_uint8"
      },
      {
        "astId": 249,
        "contract": "contracts/DepositNFT.sol:DepositNFT",
        "label": "_initializing",
        "offset": 1,
        "slot": "0",
        "type": "t_bool"
      },
      {
        "astId": 2436,
        "contract": "contracts/DepositNFT.sol:DepositNFT",
        "label": "__gap",
        "offset": 0,
        "slot": "1",
        "type": "t_array(t_uint256)50_storage"
      },
      {
        "astId": 2710,
        "contract": "contracts/DepositNFT.sol:DepositNFT",
        "label": "__gap",
        "offset": 0,
        "slot": "51",
        "type": "t_array(t_uint256)50_storage"
      },
      {
        "astId": 566,
        "contract": "contracts/DepositNFT.sol:DepositNFT",
        "label": "_name",
        "offset": 0,
        "slot": "101",
        "type": "t_string_storage"
      },
      {
        "astId": 568,
        "contract": "contracts/DepositNFT.sol:DepositNFT",
        "label": "_symbol",
        "offset": 0,
        "slot": "102",
        "type": "t_string_storage"
      },
      {
        "astId": 572,
        "contract": "contracts/DepositNFT.sol:DepositNFT",
        "label": "_owners",
        "offset": 0,
        "slot": "103",
        "type": "t_mapping(t_uint256,t_address)"
      },
      {
        "astId": 576,
        "contract": "contracts/DepositNFT.sol:DepositNFT",
        "label": "_balances",
        "offset": 0,
        "slot": "104",
        "type": "t_mapping(t_address,t_uint256)"
      },
      {
        "astId": 580,
        "contract": "contracts/DepositNFT.sol:DepositNFT",
        "label": "_tokenApprovals",
        "offset": 0,
        "slot": "105",
        "type": "t_mapping(t_uint256,t_address)"
      },
      {
        "astId": 586,
        "contract": "contracts/DepositNFT.sol:DepositNFT",
        "label": "_operatorApprovals",
        "offset": 0,
        "slot": "106",
        "type": "t_mapping(t_address,t_mapping(t_address,t_bool))"
      },
      {
        "astId": 1488,
        "contract": "contracts/DepositNFT.sol:DepositNFT",
        "label": "__gap",
        "offset": 0,
        "slot": "107",
        "type": "t_array(t_uint256)44_storage"
      },
      {
        "astId": 1642,
        "contract": "contracts/DepositNFT.sol:DepositNFT",
        "label": "_ownedTokens",
        "offset": 0,
        "slot": "151",
        "type": "t_mapping(t_address,t_mapping(t_uint256,t_uint256))"
      },
      {
        "astId": 1646,
        "contract": "contracts/DepositNFT.sol:DepositNFT",
        "label": "_ownedTokensIndex",
        "offset": 0,
        "slot": "152",
        "type": "t_mapping(t_uint256,t_uint256)"
      },
      {
        "astId": 1649,
        "contract": "contracts/DepositNFT.sol:DepositNFT",
        "label": "_allTokens",
        "offset": 0,
        "slot": "153",
        "type": "t_array(t_uint256)dyn_storage"
      },
      {
        "astId": 1653,
        "contract": "contracts/DepositNFT.sol:DepositNFT",
        "label": "_allTokensIndex",
        "offset": 0,
        "slot": "154",
        "type": "t_mapping(t_uint256,t_uint256)"
      },
      {
        "astId": 1997,
        "contract": "contracts/DepositNFT.sol:DepositNFT",
        "label": "__gap",
        "offset": 0,
        "slot": "155",
        "type": "t_array(t_uint256)46_storage"
      },
      {
        "astId": 430,
        "contract": "contracts/DepositNFT.sol:DepositNFT",
        "label": "_paused",
        "offset": 0,
        "slot": "201",
        "type": "t_bool"
      },
      {
        "astId": 535,
        "contract": "contracts/DepositNFT.sol:DepositNFT",
        "label": "__gap",
        "offset": 0,
        "slot": "202",
        "type": "t_array(t_uint256)49_storage"
      },
      {
        "astId": 118,
        "contract": "contracts/DepositNFT.sol:DepositNFT",
        "label": "_owner",
        "offset": 0,
        "slot": "251",
        "type": "t_address"
      },
      {
        "astId": 238,
        "contract": "contracts/DepositNFT.sol:DepositNFT",
        "label": "__gap",
        "offset": 0,
        "slot": "252",
        "type": "t_array(t_uint256)49_storage"
      },
      {
        "astId": 11,
        "contract": "contracts/DepositNFT.sol:DepositNFT",
        "label": "_pendingOwner",
        "offset": 0,
        "slot": "301",
        "type": "t_address"
      },
      {
        "astId": 105,
        "contract": "contracts/DepositNFT.sol:DepositNFT",
        "label": "__gap",
        "offset": 0,
        "slot": "302",
        "type": "t_array(t_uint256)49_storage"
      },
      {
        "astId": 3714,
        "contract": "contracts/DepositNFT.sol:DepositNFT",
        "label": "_nextTokenId",
        "offset": 0,
        "slot": "351",
        "type": "t_uint256"
      },
      {
        "astId": 3716,
        "contract": "contracts/DepositNFT.sol:DepositNFT",
        "label": "baseURI",
        "offset": 0,
        "slot": "352",
        "type": "t_string_storage"
      },
      {
        "astId": 3718,
        "contract": "contracts/DepositNFT.sol:DepositNFT",
        "label": "depositContract",
        "offset": 0,
        "slot": "353",
        "type": "t_address"
      },
      {
        "astId": 3732,
        "contract": "contracts/DepositNFT.sol:DepositNFT",
        "label": "depositInfo",
        "offset": 0,
        "slot": "354",
        "type": "t_mapping(t_uint256,t_struct(DepositInfo)3727_storage)"
      }
    ],
    "types": {
      "t_address": {
        "encoding": "inplace",
        "label": "address",
        "numberOfBytes": "20"
      },
      "t_array(t_uint256)44_storage": {
        "base": "t_uint256",
        "encoding": "inplace",
        "label": "uint256[44]",
        "numberOfBytes": "1408"
      },
      "t_array(t_uint256)46_storage": {
        "base": "t_uint256",
        "encoding": "inplace",
        "label": "uint256[46]",
        "numberOfBytes": "1472"
      },
      "t_array(t_uint256)49_storage": {
        "base": "t_uint256",
        "encoding": "inplace",
        "label": "uint256[49]",
        "numberOfBytes": "1568"
      },
      "t_array(t_uint256)50_storage": {
        "base": "t_uint256",
        "encoding": "inplace",
        "label": "uint256[50]",
        "numberOfBytes": "1600"
      },
      "t_array(t_uint256)dyn_storage": {
        "base": "t_uint256",
        "encoding": "dynamic_array",
        "label": "uint256[]",
        "numberOfBytes": "32"
      },
      "t_bool": {
        "encoding": "inplace",
        "label": "bool",
        "numberOfBytes": "1"
      },
      "t_mapping(t_address,t_bool)": {
        "encoding": "mapping",
        "key": "t_address",
        "label": "mapping(address => bool)",
        "numberOfBytes": "32",
        "value": "t_bool"
      },
      "t_mapping(t_address,t_mapping(t_address,t_bool))": {
        "encoding": "mapping",
        "key": "t_address",
        "label": "mapping(address => mapping(address => bool))",
        "numberOfBytes": "32",
        "value": "t_mapping(t_address,t_bool)"
      },
      "t_mapping(t_address,t_mapping(t_uint256,t_uint256))": {
        "encoding": "mapping",
        "key": "t_address",
        "label": "mapping(address => mapping(uint256 => uint256))",
        "numberOfBytes": "32",
        "value": "t_mapping(t_uint256,t_uint256)"
      },
      "t_mapping(t_address,t_uint256)": {
        "encoding": "mapping",
        "key": "t_address",
        "label": "mapping(address => uint256)",
        "numberOfBytes": "32",
        "value": "t_uint256"
      },
      "t_mapping(t_uint256,t_address)": {
        "encoding": "mapping",
        "key": "t_uint256",
        "label": "mapping(uint256 => address)",
        "numberOfBytes": "32",
        "value": "t_address"
      },
      "t_mapping(t_uint256,t_struct(DepositInfo)3727_storage)": {
        "encoding": "mapping",
        "key": "t_uint256",
        "label": "mapping(uint256 => struct DepositNFT.DepositInfo)",
        "numberOfBytes": "32",
        "value": "t_struct(DepositInfo)3727_storage"
      },
      "t_mapping(t_uint256,t_uint256)": {
        "encoding": "mapping",
        "key": "t_uint256",
        "label": "mapping(uint256 => uint256)",
        "numberOfBytes": "32",
        "value": "t_uint256"
      },
      "t_string_storage": {
        "encoding": "bytes",
        "label": "string",
        "numberOfBytes": "32"
      },
      "t_struct(DepositInfo)3727_storage": {
        "encoding": "inplace",
        "label": "struct DepositNFT.DepositInfo",
        "members": [
          {
            "astId": 3720,
            "contract": "contracts/DepositNFT.sol:DepositNFT",
            "label": "depositToken",
            "offset": 0,
            "slot": "0",
            "type": "t_address"
          },
          {
            "astId": 3722,
            "contract": "contracts/DepositNFT.sol:DepositNFT",
            "label": "amount",
            "offset": 0,
            "slot": "1",
            "type": "t_uint256"
          },
          {
            "astId": 3724,
            "contract": "contracts/DepositNFT.sol:DepositNFT",
            "label": "wrappedToken",
            "offset": 0,
            "slot": "2",
            "type": "t_address"
          },
          {
            "astId": 3726,
            "contract": "contracts/DepositNFT.sol:DepositNFT",
            "label": "wrappedAmount",
            "offset": 0,
            "slot": "3",
            "type": "t_uint256"
          }
        ],
        "numberOfBytes": "128"
      },
      "t_uint256": {
        "encoding": "inplace",
        "label": "uint256",
        "numberOfBytes": "32"
      },
      "t_uint8": {
        "encoding": "inplace",
        "label": "uint8",
        "numberOfBytes": "1"
      }
    }
  }
}