{
  "address": "0x1bB250e7F73E7220d100a02B1Cf2ba100e7f624B",
  "abi": [
    {
      "inputs": [],
      "stateMutability": "nonpayable",
      "type": "constructor"
    },
    {
      "anonymous": false,
      "inputs": [
        {
          "indexed": true,
          "internalType": "uint256",
          "name": "pid",
          "type": "uint256"
        },
        {
          "indexed": true,
          "internalType": "address",
          "name": "token",
          "type": "address"
        },
        {
          "indexed": false,
          "internalType": "uint256",
          "name": "depositCap",
          "type": "uint256"
        }
      ],
      "name": "AddNewPool",
      "type": "event"
    },
    {
      "anonymous": false,
      "inputs": [
        {
          "indexed": true,
          "internalType": "address",
          "name": "user",
          "type": "address"
        },
        {
          "indexed": true,
          "internalType": "uint256",
          "name": "pid",
          "type": "uint256"
        },
        {
          "indexed": false,
          "internalType": "address",
          "name": "token",
          "type": "address"
        },
        {
          "indexed": false,
          "internalType": "uint256",
          "name": "amount",
          "type": "uint256"
        },
        {
          "indexed": true,
          "internalType": "address",
          "name": "to",
          "type": "address"
        }
      ],
      "name": "Deposit",
      "type": "event"
    },
    {
      "anonymous": false,
      "inputs": [
        {
          "indexed": false,
          "internalType": "uint8",
          "name": "version",
          "type": "uint8"
        }
      ],
      "name": "Initialized",
      "type": "event"
    },
    {
      "anonymous": false,
      "inputs": [
        {
          "indexed": true,
          "internalType": "bytes32",
          "name": "role",
          "type": "bytes32"
        },
        {
          "indexed": true,
          "internalType": "bytes32",
          "name": "previousAdminRole",
          "type": "bytes32"
        },
        {
          "indexed": true,
          "internalType": "bytes32",
          "name": "newAdminRole",
          "type": "bytes32"
        }
      ],
      "name": "RoleAdminChanged",
      "type": "event"
    },
    {
      "anonymous": false,
      "inputs": [
        {
          "indexed": true,
          "internalType": "bytes32",
          "name": "role",
          "type": "bytes32"
        },
        {
          "indexed": true,
          "internalType": "address",
          "name": "account",
          "type": "address"
        },
        {
          "indexed": true,
          "internalType": "address",
          "name": "sender",
          "type": "address"
        }
      ],
      "name": "RoleGranted",
      "type": "event"
    },
    {
      "anonymous": false,
      "inputs": [
        {
          "indexed": true,
          "internalType": "bytes32",
          "name": "role",
          "type": "bytes32"
        },
        {
          "indexed": true,
          "internalType": "address",
          "name": "account",
          "type": "address"
        },
        {
          "indexed": true,
          "internalType": "address",
          "name": "sender",
          "type": "address"
        }
      ],
      "name": "RoleRevoked",
      "type": "event"
    },
    {
      "anonymous": false,
      "inputs": [
        {
          "indexed": true,
          "internalType": "uint256",
          "name": "pid",
          "type": "uint256"
        },
        {
          "indexed": false,
          "internalType": "uint256",
          "name": "depositCap",
          "type": "uint256"
        }
      ],
      "name": "SetDepositCap",
      "type": "event"
    },
    {
      "anonymous": false,
      "inputs": [
        {
          "indexed": true,
          "internalType": "uint256",
          "name": "pid",
          "type": "uint256"
        },
        {
          "indexed": false,
          "internalType": "bool",
          "name": "paused",
          "type": "bool"
        }
      ],
      "name": "SetPause",
      "type": "event"
    },
    {
      "anonymous": false,
      "inputs": [
        {
          "indexed": true,
          "internalType": "address",
          "name": "user",
          "type": "address"
        },
        {
          "indexed": true,
          "internalType": "uint256",
          "name": "pid",
          "type": "uint256"
        },
        {
          "indexed": false,
          "internalType": "address",
          "name": "token",
          "type": "address"
        },
        {
          "indexed": false,
          "internalType": "uint256",
          "name": "amount",
          "type": "uint256"
        },
        {
          "indexed": true,
          "internalType": "address",
          "name": "to",
          "type": "address"
        }
      ],
      "name": "Withdraw",
      "type": "event"
    },
    {
      "inputs": [],
      "name": "ADMIN_ROLE",
      "outputs": [
        {
          "internalType": "bytes32",
          "name": "",
          "type": "bytes32"
        }
      ],
      "stateMutability": "view",
      "type": "function"
    },
    {
      "inputs": [],
      "name": "DEFAULT_ADMIN_ROLE",
      "outputs": [
        {
          "internalType": "bytes32",
          "name": "",
          "type": "bytes32"
        }
      ],
      "stateMutability": "view",
      "type": "function"
    },
    {
      "inputs": [],
      "name": "LISTING_ROLE",
      "outputs": [
        {
          "internalType": "bytes32",
          "name": "",
          "type": "bytes32"
        }
      ],
      "stateMutability": "view",
      "type": "function"
    },
    {
      "inputs": [
        {
          "internalType": "contract IERC20",
          "name": "_want",
          "type": "address"
        },
        {
          "internalType": "uint256",
          "name": "_depositCap",
          "type": "uint256"
        }
      ],
      "name": "add",
      "outputs": [],
      "stateMutability": "nonpayable",
      "type": "function"
    },
    {
      "inputs": [
        {
          "internalType": "uint256",
          "name": "pid",
          "type": "uint256"
        },
        {
          "internalType": "uint256",
          "name": "amount",
          "type": "uint256"
        },
        {
          "internalType": "address",
          "name": "to",
          "type": "address"
        }
      ],
      "name": "deposit",
      "outputs": [],
      "stateMutability": "nonpayable",
      "type": "function"
    },
    {
      "inputs": [
        {
          "internalType": "bytes32",
          "name": "role",
          "type": "bytes32"
        }
      ],
      "name": "getRoleAdmin",
      "outputs": [
        {
          "internalType": "bytes32",
          "name": "",
          "type": "bytes32"
        }
      ],
      "stateMutability": "view",
      "type": "function"
    },
    {
      "inputs": [
        {
          "internalType": "address",
          "name": "_account",
          "type": "address"
        }
      ],
      "name": "grantAdminRole",
      "outputs": [],
      "stateMutability": "nonpayable",
      "type": "function"
    },
    {
      "inputs": [
        {
          "internalType": "address",
          "name": "_account",
          "type": "address"
        }
      ],
      "name": "grantListingRole",
      "outputs": [],
      "stateMutability": "nonpayable",
      "type": "function"
    },
    {
      "inputs": [
        {
          "internalType": "bytes32",
          "name": "role",
          "type": "bytes32"
        },
        {
          "internalType": "address",
          "name": "account",
          "type": "address"
        }
      ],
      "name": "grantRole",
      "outputs": [],
      "stateMutability": "nonpayable",
      "type": "function"
    },
    {
      "inputs": [
        {
          "internalType": "bytes32",
          "name": "role",
          "type": "bytes32"
        },
        {
          "internalType": "address",
          "name": "account",
          "type": "address"
        }
      ],
      "name": "hasRole",
      "outputs": [
        {
          "internalType": "bool",
          "name": "",
          "type": "bool"
        }
      ],
      "stateMutability": "view",
      "type": "function"
    },
    {
      "inputs": [
        {
          "internalType": "address",
          "name": "_defaultAdmin",
          "type": "address"
        }
      ],
      "name": "initialize",
      "outputs": [],
      "stateMutability": "nonpayable",
      "type": "function"
    },
    {
      "inputs": [
        {
          "internalType": "uint256",
          "name": "",
          "type": "uint256"
        }
      ],
      "name": "poolInfo",
      "outputs": [
        {
          "internalType": "contract IERC20",
          "name": "want",
          "type": "address"
        },
        {
          "internalType": "uint256",
          "name": "totalDeposited",
          "type": "uint256"
        },
        {
          "internalType": "uint256",
          "name": "depositCap",
          "type": "uint256"
        },
        {
          "internalType": "bool",
          "name": "paused",
          "type": "bool"
        }
      ],
      "stateMutability": "view",
      "type": "function"
    },
    {
      "inputs": [],
      "name": "poolLength",
      "outputs": [
        {
          "internalType": "uint256",
          "name": "",
          "type": "uint256"
        }
      ],
      "stateMutability": "view",
      "type": "function"
    },
    {
      "inputs": [
        {
          "internalType": "bytes32",
          "name": "role",
          "type": "bytes32"
        },
        {
          "internalType": "address",
          "name": "account",
          "type": "address"
        }
      ],
      "name": "renounceRole",
      "outputs": [],
      "stateMutability": "nonpayable",
      "type": "function"
    },
    {
      "inputs": [
        {
          "internalType": "uint256",
          "name": "amount",
          "type": "uint256"
        }
      ],
      "name": "rescueETH",
      "outputs": [],
      "stateMutability": "nonpayable",
      "type": "function"
    },
    {
      "inputs": [
        {
          "internalType": "contract IERC20",
          "name": "token",
          "type": "address"
        },
        {
          "internalType": "uint256",
          "name": "amount",
          "type": "uint256"
        }
      ],
      "name": "rescueFunds",
      "outputs": [],
      "stateMutability": "nonpayable",
      "type": "function"
    },
    {
      "inputs": [
        {
          "internalType": "address",
          "name": "_account",
          "type": "address"
        }
      ],
      "name": "revokeAdminRole",
      "outputs": [],
      "stateMutability": "nonpayable",
      "type": "function"
    },
    {
      "inputs": [
        {
          "internalType": "address",
          "name": "_account",
          "type": "address"
        }
      ],
      "name": "revokeListingRole",
      "outputs": [],
      "stateMutability": "nonpayable",
      "type": "function"
    },
    {
      "inputs": [
        {
          "internalType": "bytes32",
          "name": "role",
          "type": "bytes32"
        },
        {
          "internalType": "address",
          "name": "account",
          "type": "address"
        }
      ],
      "name": "revokeRole",
      "outputs": [],
      "stateMutability": "nonpayable",
      "type": "function"
    },
    {
      "inputs": [
        {
          "internalType": "uint256",
          "name": "_pid",
          "type": "uint256"
        },
        {
          "internalType": "uint256",
          "name": "_depositCap",
          "type": "uint256"
        }
      ],
      "name": "setDepositCap",
      "outputs": [],
      "stateMutability": "nonpayable",
      "type": "function"
    },
    {
      "inputs": [
        {
          "internalType": "uint256",
          "name": "_pid",
          "type": "uint256"
        },
        {
          "internalType": "bool",
          "name": "_paused",
          "type": "bool"
        }
      ],
      "name": "setPause",
      "outputs": [],
      "stateMutability": "nonpayable",
      "type": "function"
    },
    {
      "inputs": [
        {
          "internalType": "bytes4",
          "name": "interfaceId",
          "type": "bytes4"
        }
      ],
      "name": "supportsInterface",
      "outputs": [
        {
          "internalType": "bool",
          "name": "",
          "type": "bool"
        }
      ],
      "stateMutability": "view",
      "type": "function"
    },
    {
      "inputs": [
        {
          "internalType": "uint256",
          "name": "",
          "type": "uint256"
        },
        {
          "internalType": "address",
          "name": "",
          "type": "address"
        }
      ],
      "name": "userInfo",
      "outputs": [
        {
          "internalType": "uint256",
          "name": "amount",
          "type": "uint256"
        },
        {
          "internalType": "uint256",
          "name": "lastDepositTimestamp",
          "type": "uint256"
        }
      ],
      "stateMutability": "view",
      "type": "function"
    },
    {
      "inputs": [
        {
          "internalType": "uint256",
          "name": "pid",
          "type": "uint256"
        },
        {
          "internalType": "uint256",
          "name": "desiredAmount",
          "type": "uint256"
        },
        {
          "internalType": "address",
          "name": "to",
          "type": "address"
        }
      ],
      "name": "withdraw",
      "outputs": [],
      "stateMutability": "nonpayable",
      "type": "function"
    }
  ],
  "transactionHash": "0xbafad3470493082a40dbfa7687d79ed991b269b8d84d94ccd18dee4c705d1330",
  "args": [],
  "numDeployments": 1,
  "solcInputHash": "2d996a8892b5c446e5e6c5fe5c88e2c6",
  "bytecode": "0x608060405234801561001057600080fd5b50611634806100206000396000f3fe608060405234801561001057600080fd5b50600436106101585760003560e01c80638dbdbe6d116100c3578063a99337311161007c578063a993373114610330578063c4d66de814610343578063c634b78e14610356578063d547741f14610369578063f5d82b6b1461037c578063fdac74da1461038f57600080fd5b80638dbdbe6d1461029557806391d14854146102a857806393f1a40b146102bb5780639a19c7b0146103025780639e252f0014610315578063a217fddf1461032857600080fd5b80632e253681116101155780632e253681146102215780632f2ff15d1461023457806336568abe14610247578063454c87b71461025a57806375b238fc1461026d57806378e3214f1461028257600080fd5b806301ffc9a71461015d578063081e3eda146101855780630ad58d2f146101975780631526fe27146101ac578063248a9ca3146101eb57806324faa3a11461020e575b600080fd5b61017061016b3660046112c4565b6103a4565b60405190151581526020015b60405180910390f35b6097545b60405190815260200161017c565b6101aa6101a5366004611303565b6103db565b005b6101bf6101ba36600461133c565b6104bc565b604080516001600160a01b0390951685526020850193909352918301521515606082015260800161017c565b6101896101f936600461133c565b60009081526065602052604090206001015490565b6101aa61021c366004611355565b610503565b6101aa61022f366004611385565b610583565b6101aa6102423660046113b5565b61060b565b6101aa6102553660046113b5565b610635565b6101aa6102683660046113da565b6106b8565b6101896000805160206115df83398151915281565b6101aa6102903660046113f7565b6106d3565b6101aa6102a3366004611303565b6106ff565b6101706102b63660046113b5565b61086d565b6102ed6102c93660046113b5565b60986020908152600092835260408084209091529082529020805460019091015482565b6040805192835260208301919091520161017c565b6101aa6103103660046113da565b610898565b6101aa61032336600461133c565b6108b0565b610189600081565b6101aa61033e3660046113da565b61094e565b6101aa6103513660046113da565b610966565b6101aa6103643660046113da565b610ab2565b6101aa6103773660046113b5565b610aca565b6101aa61038a3660046113f7565b610aef565b6101896000805160206115bf83398151915281565b60006001600160e01b03198216637965db0b60e01b14806103d557506301ffc9a760e01b6001600160e01b03198316145b92915050565b6000609784815481106103f0576103f0611423565b60009182526020808320878452609882526040808520338652909252922080546004909202909201925084111561042657805493505b83156104b557805461043990859061144f565b8155600182015461044b90859061144f565b60018301558154610466906001600160a01b03168486610c48565b8154604080516001600160a01b0392831681526020810187905291851691879133917fc5de321f20136e2f86609c5eab638083a3300f55766433c1243a6ea1610f779291015b60405180910390a45b5050505050565b609781815481106104cc57600080fd5b600091825260209091206004909102018054600182015460028301546003909301546001600160a01b039092169350919060ff1684565b6000805160206115bf83398151915261051b81610cab565b816097848154811061052f5761052f611423565b906000526020600020906004020160020181905550827f956e7aa988106f059c11ed7903de5532fa0581099295db11514cb99180560a668360405161057691815260200190565b60405180910390a2505050565b6000805160206115df83398151915261059b81610cab565b81609784815481106105af576105af611423565b906000526020600020906004020160030160006101000a81548160ff021916908315150217905550827f56625ac6e3fec476f89525ee37ee0a6b871ef3077e3d7539c5cb631a8e93188c83604051610576911515815260200190565b60008281526065602052604090206001015461062681610cab565b6106308383610cb5565b505050565b6001600160a01b03811633146106aa5760405162461bcd60e51b815260206004820152602f60248201527f416363657373436f6e74726f6c3a2063616e206f6e6c792072656e6f756e636560448201526e103937b632b9903337b91039b2b63360891b60648201526084015b60405180910390fd5b6106b48282610d3b565b5050565b6106d06000805160206115bf83398151915282610aca565b50565b6000805160206115df8339815191526106eb81610cab565b6106306001600160a01b0384163384610c48565b60006097848154811061071457610714611423565b60009182526020909120600490910201600381015490915060ff16156107665760405162461bcd60e51b8152602060048201526007602482015266085c185d5cd95960ca1b60448201526064016106a1565b82156108675760008481526098602090815260408083206001600160a01b0380871685529252909120825490916107a09116333087610da2565b80546107ad908590611462565b8155426001808301919091558201546107c7908590611462565b600183015560028201541561081d5781600201548260010154111561081d5760405162461bcd60e51b815260206004820152600c60248201526b0216465706f7369742d6361760a41b60448201526064016106a1565b8154604080516001600160a01b0392831681526020810187905291851691879133917f0b6c6cb502d2da9ef6887b17afbeb0034852ce0a2394ac48028d6b0f7810b63c91016104ac565b50505050565b60009182526065602090815260408084206001600160a01b0393909316845291905290205460ff1690565b6106d06000805160206115df83398151915282610aca565b6000805160206115df8339815191526108c881610cab565b604051600090339084908381818185875af1925050503d806000811461090a576040519150601f19603f3d011682016040523d82523d6000602084013e61090f565b606091505b50509050806106305760405162461bcd60e51b815260206004820152600b60248201526a216574682d72657363756560a81b60448201526064016106a1565b6106d06000805160206115bf8339815191528261060b565b600054610100900460ff16158080156109865750600054600160ff909116105b806109a05750303b1580156109a0575060005460ff166001145b610a035760405162461bcd60e51b815260206004820152602e60248201527f496e697469616c697a61626c653a20636f6e747261637420697320616c72656160448201526d191e481a5b9a5d1a585b1a5e995960921b60648201526084016106a1565b6000805460ff191660011790558015610a26576000805461ff0019166101001790555b610a2e610dda565b610a39600083610e47565b610a516000805160206115df83398151915283610e47565b610a696000805160206115bf83398151915283610e47565b80156106b4576000805461ff0019169055604051600181527f7f26b83ff96e1f2b6a682f133852f6798a09c465da95921460cefb38474024989060200160405180910390a15050565b6106d06000805160206115df8339815191528261060b565b600082815260656020526040902060010154610ae581610cab565b6106308383610d3b565b6000805160206115bf833981519152610b0781610cab565b604080516080810182526001600160a01b038581168083526000602084018181529484018781526060850182815260978054600180820183559482905296517f354a83ed9988f79f6038d4c7a7dadbad8af32f4ad6df893e0e5807a1b1944ff9600490980297880180546001600160a01b031916919097161790955595517f354a83ed9988f79f6038d4c7a7dadbad8af32f4ad6df893e0e5807a1b1944ffa860155517f354a83ed9988f79f6038d4c7a7dadbad8af32f4ad6df893e0e5807a1b1944ffb85015593517f354a83ed9988f79f6038d4c7a7dadbad8af32f4ad6df893e0e5807a1b1944ffc909301805460ff191693151593909317909255549091610c109161144f565b6040518481527fb94a36452b7701cd004540999d25875a7ebc0901ea5aa661167bbf49624b432c9060200160405180910390a3505050565b6040516001600160a01b03831660248201526044810182905261063090849063a9059cbb60e01b906064015b60408051601f198184030181529190526020810180516001600160e01b03166001600160e01b031990931692909217909152610e51565b6106d08133610f26565b610cbf828261086d565b6106b45760008281526065602090815260408083206001600160a01b03851684529091529020805460ff19166001179055610cf73390565b6001600160a01b0316816001600160a01b0316837f2f8788117e7eff1d82e926ec794901d17c78024a50270940304540a733656f0d60405160405180910390a45050565b610d45828261086d565b156106b45760008281526065602090815260408083206001600160a01b0385168085529252808320805460ff1916905551339285917ff6391f5c32d9c69d2a47ea670b442974b53935d1edc7fd64eb21e047a839171b9190a45050565b6040516001600160a01b03808516602483015283166044820152606481018290526108679085906323b872dd60e01b90608401610c74565b600054610100900460ff16610e455760405162461bcd60e51b815260206004820152602b60248201527f496e697469616c697a61626c653a20636f6e7472616374206973206e6f74206960448201526a6e697469616c697a696e6760a81b60648201526084016106a1565b565b6106b48282610cb5565b6000610ea6826040518060400160405280602081526020017f5361666545524332303a206c6f772d6c6576656c2063616c6c206661696c6564815250856001600160a01b0316610f7f9092919063ffffffff16565b9050805160001480610ec7575080806020019051810190610ec79190611475565b6106305760405162461bcd60e51b815260206004820152602a60248201527f5361666545524332303a204552433230206f7065726174696f6e20646964206e6044820152691bdd081cdd58d8d9595960b21b60648201526084016106a1565b610f30828261086d565b6106b457610f3d81610f96565b610f48836020610fa8565b604051602001610f599291906114b6565b60408051601f198184030181529082905262461bcd60e51b82526106a19160040161152b565b6060610f8e848460008561114b565b949350505050565b60606103d56001600160a01b03831660145b60606000610fb783600261155e565b610fc2906002611462565b67ffffffffffffffff811115610fda57610fda611575565b6040519080825280601f01601f191660200182016040528015611004576020820181803683370190505b509050600360fc1b8160008151811061101f5761101f611423565b60200101906001600160f81b031916908160001a905350600f60fb1b8160018151811061104e5761104e611423565b60200101906001600160f81b031916908160001a905350600061107284600261155e565b61107d906001611462565b90505b60018111156110f5576f181899199a1a9b1b9c1cb0b131b232b360811b85600f16601081106110b1576110b1611423565b1a60f81b8282815181106110c7576110c7611423565b60200101906001600160f81b031916908160001a90535060049490941c936110ee8161158b565b9050611080565b5083156111445760405162461bcd60e51b815260206004820181905260248201527f537472696e67733a20686578206c656e67746820696e73756666696369656e7460448201526064016106a1565b9392505050565b6060824710156111ac5760405162461bcd60e51b815260206004820152602660248201527f416464726573733a20696e73756666696369656e742062616c616e636520666f6044820152651c8818d85b1b60d21b60648201526084016106a1565b600080866001600160a01b031685876040516111c891906115a2565b60006040518083038185875af1925050503d8060008114611205576040519150601f19603f3d011682016040523d82523d6000602084013e61120a565b606091505b509150915061121b87838387611226565b979650505050505050565b6060831561129557825160000361128e576001600160a01b0385163b61128e5760405162461bcd60e51b815260206004820152601d60248201527f416464726573733a2063616c6c20746f206e6f6e2d636f6e747261637400000060448201526064016106a1565b5081610f8e565b610f8e83838151156112aa5781518083602001fd5b8060405162461bcd60e51b81526004016106a1919061152b565b6000602082840312156112d657600080fd5b81356001600160e01b03198116811461114457600080fd5b6001600160a01b03811681146106d057600080fd5b60008060006060848603121561131857600080fd5b83359250602084013591506040840135611331816112ee565b809150509250925092565b60006020828403121561134e57600080fd5b5035919050565b6000806040838503121561136857600080fd5b50508035926020909101359150565b80151581146106d057600080fd5b6000806040838503121561139857600080fd5b8235915060208301356113aa81611377565b809150509250929050565b600080604083850312156113c857600080fd5b8235915060208301356113aa816112ee565b6000602082840312156113ec57600080fd5b8135611144816112ee565b6000806040838503121561140a57600080fd5b8235611415816112ee565b946020939093013593505050565b634e487b7160e01b600052603260045260246000fd5b634e487b7160e01b600052601160045260246000fd5b818103818111156103d5576103d5611439565b808201808211156103d5576103d5611439565b60006020828403121561148757600080fd5b815161114481611377565b60005b838110156114ad578181015183820152602001611495565b50506000910152565b7f416363657373436f6e74726f6c3a206163636f756e74200000000000000000008152600083516114ee816017850160208801611492565b7001034b99036b4b9b9b4b733903937b6329607d1b601791840191820152835161151f816028840160208801611492565b01602801949350505050565b602081526000825180602084015261154a816040850160208701611492565b601f01601f19169190910160400192915050565b80820281158282048414176103d5576103d5611439565b634e487b7160e01b600052604160045260246000fd5b60008161159a5761159a611439565b506000190190565b600082516115b4818460208701611492565b919091019291505056fea17208688ccc3f924df40d041e5beb10b1b5e5b83435ca93c71c84ead1d8910ba49807205ce4d355092ef5a8a18f56e8913cf4a201fbe287825b095693c21775a264697066735822122057bbf883f6ea8ef842d2d4890b62644d31decc743127a09a46f0164d0188a8d664736f6c63430008130033",
  "devdoc": {
    "events": {
      "Initialized(uint8)": {
        "details": "Triggered when the contract has been initialized or reinitialized."
      },
      "RoleAdminChanged(bytes32,bytes32,bytes32)": {
        "details": "Emitted when `newAdminRole` is set as ``role``'s admin role, replacing `previousAdminRole` `DEFAULT_ADMIN_ROLE` is the starting admin for all roles, despite {RoleAdminChanged} not being emitted signaling this. _Available since v3.1._"
      },
      "RoleGranted(bytes32,address,address)": {
        "details": "Emitted when `account` is granted `role`. `sender` is the account that originated the contract call, an admin role bearer except when using {AccessControl-_setupRole}."
      },
      "RoleRevoked(bytes32,address,address)": {
        "details": "Emitted when `account` is revoked `role`. `sender` is the account that originated the contract call:   - if using `revokeRole`, it is the admin role bearer   - if using `renounceRole`, it is the role bearer (i.e. `account`)"
      }
    },
    "kind": "dev",
    "methods": {
      "deposit(uint256,uint256,address)": {
        "params": {
          "amount": "LP token amount to deposit.",
          "pid": "The index of the pool. See `poolInfo`.",
          "to": "The receiver of `amount` deposit benefit."
        }
      },
      "getRoleAdmin(bytes32)": {
        "details": "Returns the admin role that controls `role`. See {grantRole} and {revokeRole}. To change a role's admin, use {_setRoleAdmin}."
      },
      "grantRole(bytes32,address)": {
        "details": "Grants `role` to `account`. If `account` had not been already granted `role`, emits a {RoleGranted} event. Requirements: - the caller must have ``role``'s admin role. May emit a {RoleGranted} event."
      },
      "hasRole(bytes32,address)": {
        "details": "Returns `true` if `account` has been granted `role`."
      },
      "renounceRole(bytes32,address)": {
        "details": "Revokes `role` from the calling account. Roles are often managed via {grantRole} and {revokeRole}: this function's purpose is to provide a mechanism for accounts to lose their privileges if they are compromised (such as when a trusted device is misplaced). If the calling account had been revoked `role`, emits a {RoleRevoked} event. Requirements: - the caller must be `account`. May emit a {RoleRevoked} event."
      },
      "revokeRole(bytes32,address)": {
        "details": "Revokes `role` from `account`. If `account` had been granted `role`, emits a {RoleRevoked} event. Requirements: - the caller must have ``role``'s admin role. May emit a {RoleRevoked} event."
      },
      "supportsInterface(bytes4)": {
        "details": "See {IERC165-supportsInterface}."
      },
      "withdraw(uint256,uint256,address)": {
        "params": {
          "desiredAmount": "amount of shares to withdraw.",
          "pid": "The index of the pool. See `poolInfo`.",
          "to": "Receiver of the LP tokens."
        }
      }
    },
    "version": 1
  },
  "userdoc": {
    "kind": "user",
    "methods": {
      "deposit(uint256,uint256,address)": {
        "notice": "Deposit LP tokens to MonoMaster for reward allocation."
      },
      "withdraw(uint256,uint256,address)": {
        "notice": "Withdraw LP tokens from MonoMaster."
      }
    },
    "version": 1
  },
  "storageLayout": {
    "storage": [
      {
        "astId": 656,
        "contract": "contracts/v1/SynstationPreStaking.sol:SynstationPreStaking",
        "label": "_initialized",
        "offset": 0,
        "slot": "0",
        "type": "t_uint8"
      },
      {
        "astId": 659,
        "contract": "contracts/v1/SynstationPreStaking.sol:SynstationPreStaking",
        "label": "_initializing",
        "offset": 1,
        "slot": "0",
        "type": "t_bool"
      },
      {
        "astId": 1326,
        "contract": "contracts/v1/SynstationPreStaking.sol:SynstationPreStaking",
        "label": "__gap",
        "offset": 0,
        "slot": "1",
        "type": "t_array(t_uint256)50_storage"
      },
      {
        "astId": 1600,
        "contract": "contracts/v1/SynstationPreStaking.sol:SynstationPreStaking",
        "label": "__gap",
        "offset": 0,
        "slot": "51",
        "type": "t_array(t_uint256)50_storage"
      },
      {
        "astId": 28,
        "contract": "contracts/v1/SynstationPreStaking.sol:SynstationPreStaking",
        "label": "_roles",
        "offset": 0,
        "slot": "101",
        "type": "t_mapping(t_bytes32,t_struct(RoleData)23_storage)"
      },
      {
        "astId": 335,
        "contract": "contracts/v1/SynstationPreStaking.sol:SynstationPreStaking",
        "label": "__gap",
        "offset": 0,
        "slot": "102",
        "type": "t_array(t_uint256)49_storage"
      },
      {
        "astId": 5094,
        "contract": "contracts/v1/SynstationPreStaking.sol:SynstationPreStaking",
        "label": "poolInfo",
        "offset": 0,
        "slot": "151",
        "type": "t_array(t_struct(PoolInfo)5090_storage)dyn_storage"
      },
      {
        "astId": 5101,
        "contract": "contracts/v1/SynstationPreStaking.sol:SynstationPreStaking",
        "label": "userInfo",
        "offset": 0,
        "slot": "152",
        "type": "t_mapping(t_uint256,t_mapping(t_address,t_struct(UserInfo)5080_storage))"
      }
    ],
    "types": {
      "t_address": {
        "encoding": "inplace",
        "label": "address",
        "numberOfBytes": "20"
      },
      "t_array(t_struct(PoolInfo)5090_storage)dyn_storage": {
        "base": "t_struct(PoolInfo)5090_storage",
        "encoding": "dynamic_array",
        "label": "struct SynstationPreStaking.PoolInfo[]",
        "numberOfBytes": "32"
      },
      "t_array(t_uint256)49_storage": {
        "base": "t_uint256",
        "encoding": "inplace",
        "label": "uint256[49]",
        "numberOfBytes": "1568"
      },
      "t_array(t_uint256)50_storage": {
        "base": "t_uint256",
        "encoding": "inplace",
        "label": "uint256[50]",
        "numberOfBytes": "1600"
      },
      "t_bool": {
        "encoding": "inplace",
        "label": "bool",
        "numberOfBytes": "1"
      },
      "t_bytes32": {
        "encoding": "inplace",
        "label": "bytes32",
        "numberOfBytes": "32"
      },
      "t_contract(IERC20)2665": {
        "encoding": "inplace",
        "label": "contract IERC20",
        "numberOfBytes": "20"
      },
      "t_mapping(t_address,t_bool)": {
        "encoding": "mapping",
        "key": "t_address",
        "label": "mapping(address => bool)",
        "numberOfBytes": "32",
        "value": "t_bool"
      },
      "t_mapping(t_address,t_struct(UserInfo)5080_storage)": {
        "encoding": "mapping",
        "key": "t_address",
        "label": "mapping(address => struct SynstationPreStaking.UserInfo)",
        "numberOfBytes": "32",
        "value": "t_struct(UserInfo)5080_storage"
      },
      "t_mapping(t_bytes32,t_struct(RoleData)23_storage)": {
        "encoding": "mapping",
        "key": "t_bytes32",
        "label": "mapping(bytes32 => struct AccessControlUpgradeable.RoleData)",
        "numberOfBytes": "32",
        "value": "t_struct(RoleData)23_storage"
      },
      "t_mapping(t_uint256,t_mapping(t_address,t_struct(UserInfo)5080_storage))": {
        "encoding": "mapping",
        "key": "t_uint256",
        "label": "mapping(uint256 => mapping(address => struct SynstationPreStaking.UserInfo))",
        "numberOfBytes": "32",
        "value": "t_mapping(t_address,t_struct(UserInfo)5080_storage)"
      },
      "t_struct(PoolInfo)5090_storage": {
        "encoding": "inplace",
        "label": "struct SynstationPreStaking.PoolInfo",
        "members": [
          {
            "astId": 5083,
            "contract": "contracts/v1/SynstationPreStaking.sol:SynstationPreStaking",
            "label": "want",
            "offset": 0,
            "slot": "0",
            "type": "t_contract(IERC20)2665"
          },
          {
            "astId": 5085,
            "contract": "contracts/v1/SynstationPreStaking.sol:SynstationPreStaking",
            "label": "totalDeposited",
            "offset": 0,
            "slot": "1",
            "type": "t_uint256"
          },
          {
            "astId": 5087,
            "contract": "contracts/v1/SynstationPreStaking.sol:SynstationPreStaking",
            "label": "depositCap",
            "offset": 0,
            "slot": "2",
            "type": "t_uint256"
          },
          {
            "astId": 5089,
            "contract": "contracts/v1/SynstationPreStaking.sol:SynstationPreStaking",
            "label": "paused",
            "offset": 0,
            "slot": "3",
            "type": "t_bool"
          }
        ],
        "numberOfBytes": "128"
      },
      "t_struct(RoleData)23_storage": {
        "encoding": "inplace",
        "label": "struct AccessControlUpgradeable.RoleData",
        "members": [
          {
            "astId": 20,
            "contract": "contracts/v1/SynstationPreStaking.sol:SynstationPreStaking",
            "label": "members",
            "offset": 0,
            "slot": "0",
            "type": "t_mapping(t_address,t_bool)"
          },
          {
            "astId": 22,
            "contract": "contracts/v1/SynstationPreStaking.sol:SynstationPreStaking",
            "label": "adminRole",
            "offset": 0,
            "slot": "1",
            "type": "t_bytes32"
          }
        ],
        "numberOfBytes": "64"
      },
      "t_struct(UserInfo)5080_storage": {
        "encoding": "inplace",
        "label": "struct SynstationPreStaking.UserInfo",
        "members": [
          {
            "astId": 5077,
            "contract": "contracts/v1/SynstationPreStaking.sol:SynstationPreStaking",
            "label": "amount",
            "offset": 0,
            "slot": "0",
            "type": "t_uint256"
          },
          {
            "astId": 5079,
            "contract": "contracts/v1/SynstationPreStaking.sol:SynstationPreStaking",
            "label": "lastDepositTimestamp",
            "offset": 0,
            "slot": "1",
            "type": "t_uint256"
          }
        ],
        "numberOfBytes": "64"
      },
      "t_uint256": {
        "encoding": "inplace",
        "label": "uint256",
        "numberOfBytes": "32"
      },
      "t_uint8": {
        "encoding": "inplace",
        "label": "uint8",
        "numberOfBytes": "1"
      }
    }
  }
}